:101800003BC06FC054C053C052C051C050C04FC045
:101810004EC04DC04CC04BC04AC049C048C047C074
:1018200046C045C044C009021200010100803209CF
:10183000040000000000000012011001FF00000879
:10184000C016DC050201010200010E035500530021
:1018500042006100730070001C037700770077007E
:101860002E00660069007300630068006C002E00A3
:10187000640065000403090411241FBECFE5D4E011
:10188000DEBFCDBF10E0A0E6B0E0ECEAFFE102C0B1
:1018900005900D92A636B107D9F710E0A6E6B0E0A4
:1018A00001C01D92AD39B107E1F754D17DC3A8CF76
:1018B000A82FB92F80E090E041E050EA609530E039
:1018C00009C02D9182279795879510F08427952739
:1018D000305EC8F36F5FA8F30895EADF8D939D93A0
:1018E0000895CF93CFB7CF93C395809BE9F7809BA3
:1018F00009C0809B07C0809B05C0809B03C0809B64
:1019000001C0A1C0DF93C0918000DD27C957DF4F20
:10191000809B02C0DF91EBCF2F930F931F9300B3F7
:101920002FEF00FB20F94F933F9310B34FEF0127A8
:1019300000FB21F93BE031C04E7F012F10B3216045
:1019400028C0102F4D7F2260000000B329C04B7FBC
:101950002460012F000010B32BC010B3477F286014
:101960002AC04F7E00B320612CC04F7D10B320628F
:101970002FC04F7B00B3206432C0422700B349938D
:101980004FEF0000102710FB20F910B31570C9F1BC
:10199000297F91F2012700FB21F900B3237F89F20F
:1019A000315058F1102710FB22F910B3277E79F23D
:1019B000012700FB23F92F7C81F200B3102710FBD5
:1019C00024F92F7971F200C010B3012700FB25F92B
:1019D0002F7359F200C000B3102710FB26F92230F4
:1019E00040F200C010B3012700FB27F9243028F68D
:1019F0004F77206810B30000F9CF10E41ABF00271A
:101A000017C03B503195C31BD04010E41ABF08816A
:101A1000033CE9F00B34D9F020917E001981110FBD
:101A20001213EDCF093641F10D3211F0013E39F7B5
:101A3000009385003F914F911F910F912F91DF915E
:101A4000CAB7C6FD51CFCF91CFBFCF911895209186
:101A50008500222379F310918300112311F534308E
:101A600012F13093830020937F00109180003BE0BF
:101A7000311B3093800017C00091830001308CF43B
:101A80000AE53091600034FD10C000936000C3E7A8
:101A9000D0E00FC02795A8F45150A9F4220F000000
:101AA000F9CF4AE503C042ED01C0432FC4E1D0E0C5
:101AB00032E011B31560909A11BB02B320E415E037
:101AC0005F93012756E002BB279520F4515021F483
:101AD000220FF9CF012756E000003B5A02BBD0F29B
:101AE000279528F4515029F4220F0000F9CF01273F
:101AF00056E0279502BB20F4515021F4220FF9CF74
:101B0000012756E02991332302BB21F60A7F109169
:101B10008400110FC651D04002BB11F010937E001B
:101B200010E41ABF016011B31A7F402F4A7F5F9102
:101B300000C000C002BB11BB42BB7CCF12BAF894FC
:101B40001BBE15BE81E08BBF1BBEE0917100F09102
:101B50007200099588E10FB6F89481BD11BC0FBEE3
:101B6000939A04B601FEEADF14BE81E08BBF82E0E7
:101B70008BBF8399F8CF85B7826085BF8BB78064B0
:101B80008BBF889A80E007C0A895E7EBFBE0319710
:101B9000F1F700C000008150B9F788987894E12CE3
:101BA000F12C80918300835087FD5CC1909180006F
:101BB000CCE0D0E0C91BD109C957DF4F90917F001D
:101BC0009D3209F0C5C0883009F04AC183EC80938A
:101BD00073008AE5809360001092670088818076A8
:101BE0002981882309F444C088E690E0909382001C
:101BF000809381002330C9F49B818C812A8120331A
:101C000039F48370E82FF0E0EE59FF4F808109C06E
:101C1000203A11F4B4D105C0203C11F46D81B7D144
:101C200080E080936B0024E089C02530F9F0822F9A
:101C300084508630A0F48A819B8190936D008093BC
:101C40006C00293009F410C08E8180936E008D8164
:101C5000827080936F00209370002FEF68C0223055
:101C600019F481E08093660020E068C021E066C03E
:101C70008A8110927C00211106C010927D008CE7B1
:101C800090E022E04EC0253019F4809384003DC0DE
:101C90002630A9F59B81913019F488E398E104C0BE
:101CA000923041F486E298E1909382008093810023
:101CB00022E121C09330F1F4811108C084E798E15A
:101CC000909382008093810024E015C0813041F41C
:101CD00088E598E190938200809381002CE10BC00D
:101CE000823041F48AE498E19093820080938100ED
:101CF0002EE001C020E080E48093670016C0283009
:101D000069F0293029F4809386008CE790E004C0C4
:101D10008CE790E02A3021F020E003C086E890E0D4
:101D200021E090938200809381002F3F39F48881D5
:101D300087FD2E8180E88093670007C08F81811125
:101D400004C08E81821708F4282F2093610088C078
:101D50009091670097FF84C090916E00D82E9817DD
:101D600008F4D92E9D1990936E00CC24C394911140
:101D7000C12C80917000873010F4DE0168C08E01A4
:101D80000FC0F80161918F0180916C0090916D00FE
:101D90009C012F5F3F4F30936D0020936C00F7D074
:101DA000802F8C1B8D1568F3C11058C059C08091CD
:101DB0006C0090916D008F739927892BE1F0F89456
:101DC000E0916C00F0916D008D919D9131E00C01DE
:101DD00030935700E8951124789480916C0090918D
:101DE0006D00029690936D0080936C008F7399271D
:101DF000892BC9F00EC0F894E0916C00F0916D0051
:101E000083E080935700E895789407B600FCFDCFF7
:101E1000D6CFCC20E1F08A2F821B8D15C0F08091A7
:101E20006F008823A1F0F894E0916C00F0916D00B0
:101E3000329785E080935700E895789407B600FCC8
:101E4000FDCFF89481E180935700E89578942C2F8A
:101E50008A2F8C1B8D1508F4AACFA6CF1092610093
:101E6000109283008091600084FF73C080916100B4
:101E70008F3F09F46EC0D82E893010F098E0D92E2B
:101E80008D19809361008091730098E88927809371
:101E90007300DD2009F44BC08091670087FF28C0E4
:101EA00080916E008D1508F4D82E8D1980936E00E8
:101EB000C0907000C4E7D0E014C000916C00109195
:101EC0006D0026E02C1518F4C80159D002C0F801A5
:101ED0008491888321960F5F1F4F10936D000093AC
:101EE0006C0084E790E0FC2FF81BFD1530F31CC05C
:101EF000E0918100F0918200A4E7B0E086FF09C084
:101F000084918D93319684E790E08D0D8A13F8CFFC
:101F100007C081918D9384E790E08D0D8A13F9CFEE
:101F2000F0938200E093810028E02D1560F06D2D84
:101F300084E790E0D2DC8D2D8C5F8C3041F09FEFF8
:101F40009093610004C08FEF809361008EE18093D5
:101F5000600084E190B3957031F48150D9F710920C
:101F6000840010927E0080916600882329F0FA9404
:101F700019F4EA9409F4F7CD839B13CEF4CDE199DB
:101F8000FECF9FBB8EBBE09A99278DB30895262F75
:101F9000E199FECF9FBB8EBB2DBB0FB6F894E29AA2
:0C1FA000E19A0FBE01960895F894FFCF5F
:061FAC005AFF1E9307001E
:0400000300001800E1
:00000001FF
