:100000003BC09FC154C053C052C051C050C04FC02C
:100010004EC04DC04CC04BC04AC049C048C047C08C
:1000200046C045C044C00902120001010080190900
:10003000040000000000000012011001FF00000891
:10004000C016DC050401010200010E035500530037
:1000500042006100730070001C0377007700770096
:100060002E00660069007300630068006C002E00BB
:10007000640065000403090411241FBECFE5D4E029
:10008000DEBFCDBF10E0A0E6B0E0EEECF1E102C0D3
:1000900005900D92A236B107D9F710E0A2E6B0E0C4
:1000A00001C01D92AA3AB107E1F771D88EC8A8CF56
:1000B000CF93DF9360918800635067FD13C08091F8
:1000C0008500CCE0D0E0C81BD109C457DF4F809138
:1000D00084008D3209F457C08091620087FD9BC077
:1000E000109288008091610084FF40C060916000A0
:1000F0006F3F09F43BC0693008F46FC068506093EB
:1001000060008091780098E889278093780068E003
:100110008091620087FD1DC040918600509187004C
:1001200086FF70C0A9E7B0E0FA01962F84918D9305
:1001300031969150D9F72FEF260F30E02F5F3F4FC8
:10014000240F351F3093870020938600C4E0C60F2C
:100150004FC089E790E0C8D6682F893008F4A0C066
:100160008FEF80936000CEE1C093610094E180B393
:10017000857031F49150D9F7109289001092830064
:10018000DF91CF910895683009F0AACF83EC809376
:1001900078008AE580936100109262008881807601
:1001A00009F043C08A81109281009981911147C062
:1001B0001092820021E830E082E0309387002093A3
:1001C00086008F3FA9F19F81911104C09E819817ED
:1001D00008F4892F8093600083CF10926000809193
:1001E000780098E8892780937800611191CFC4E066
:1001F00089E790E0A2D0CC3009F4B6CF8FEF80939E
:100200006000B2CFDA01E9E7F0E0962F8D9181939B
:100210009150E1F790CFCE01E5D68F3FF9F08823DA
:1002200009F45ECF109260005BCFCE019ED4C9CF9F
:10023000988197FD1DC090E890936200CBCF9530D8
:1002400089F0963009F19830D9F0993099F081E031
:100250009A3009F080E021E830E0AFCF8EE1809362
:1002600061003ECF8093890021E830E080E0A5CF97
:100270008E81E1CF80938B0021E830E080E09DCF3C
:100280002BE830E081E099CF9B819130F1F0923002
:10029000A1F0933041F080E090E49093620091CF20
:1002A000C4E0C80FA5CF811118C084E790E09093F7
:1002B00087008093860084E0EFCF86E290E0909301
:1002C00087008093860082E1E7CF88E390E09093F7
:1002D00087008093860082E1DFCF813051F0823049
:1002E000D1F68AE490E090938700809386008EE0B8
:1002F000D3CF88E590E090938700809386008CE1CF
:10030000CBCF85B7836085BF8BB780648BBF0895E3
:10031000A82FB92F80E090E041E050EA609530E0EE
:1003200009C02D9182279795879510F084279527EE
:10033000305EC8F36F5FA8F30895EADF8D939D9355
:100340000895CF93CFB7CF93C395809BE9F7809B58
:1003500009C0809B07C0809B05C0809B03C0809B19
:1003600001C0A1C0DF93C0918500DD27C457DF4FD6
:10037000809B02C0DF91EBCF2F930F931F9300B3AD
:100380002FEF00FB20F94F933F9310B34FEF01275E
:1003900000FB21F93BE031C04E7F012F10B32160FB
:1003A00028C0102F4D7F2260000000B329C04B7F72
:1003B0002460012F000010B32BC010B3477F2860CA
:1003C0002AC04F7E00B320612CC04F7D10B3206245
:1003D0002FC04F7B00B3206432C0422700B3499343
:1003E0004FEF0000102710FB20F910B31570C9F172
:1003F000297F91F2012700FB21F900B3237F89F2C5
:10040000315058F1102710FB22F910B3277E79F2F2
:10041000012700FB23F92F7C81F200B3102710FB8A
:1004200024F92F7971F200C010B3012700FB25F9E0
:100430002F7359F200C000B3102710FB26F92230A9
:1004400040F200C010B3012700FB27F9243028F642
:100450004F77206810B30000F9CF10E41ABF0027CF
:1004600017C03B503195C31BD04010E41ABF088120
:10047000033CE9F00B34D9F0209183001981110F6E
:100480001213EDCF093641F10D3211F0013E39F76B
:1004900000938A003F914F911F910F912F91DF910F
:1004A000CAB7C6FD51CFCF91CFBFCF91189520913C
:1004B0008A00222379F310918800112311F534303A
:1004C00012F13093880020938400109185003BE066
:1004D000311B3093850017C00091880001308CF4E7
:1004E0000AE53091610034FD10C000936100C8E757
:1004F000D0E00FC02795A8F45150A9F4220F0000B6
:10050000F9CF4AE503C042ED01C0432FC4E1D0E07A
:1005100032E011B31560909A11BB02B320E415E0EC
:100520005F93012756E002BB279520F4515021F438
:10053000220FF9CF012756E000003B5A02BBD0F250
:10054000279528F4515029F4220F0000F9CF0127F4
:1005500056E0279502BB20F4515021F4220FF9CF29
:10056000012756E02991332302BB21F60A7F10911F
:100570008900110FC651D04002BB11F010938300C7
:1005800010E41ABF016011B31A7F402F4A7F5F91B8
:1005900000C000C002BB11BB42BB7CCF582F48E05B
:1005A00080E057FD18C0C398550F880FB4998F5F2E
:1005B000C59A32B72091A70092B7931B9217E0F328
:1005C000C59832B72091A70092B7931B9217E0F31A
:1005D000415039F70895C39AE7CF8FB9779BFECF83
:1005E0008FB1089521E196958795779567952A951E
:1005F000D1F72091A6002617D9F06093A600E091CC
:10060000A300F091A4008DE40995E091A300F0917E
:10061000A40080E00995E091A300F091A4008091EE
:10062000A6000995E091A300F091A40080E0099450
:1006300008958091A5008DB98091A2008EB908958A
:100640008823A1F08830D0F52EEC32E03093A4005E
:100650002093A3008430F1F008F18630C1F030F12E
:100660008730A1F483E08093A70008958DEE92E097
:100670009093A4008093A30081E08093A70082E57B
:100680008093A50081E08093A200089580EC809380
:10069000A700089588E18093A7000895823051F063
:1006A0008330A1F780E38093A70008958CE08093C6
:1006B000A700089580E68093A70008952DEE32E00C
:1006C0003093A4002093A3001092A20091E0909395
:1006D000A700893059F070F08B3021F08C3079F61A
:1006E0009093A20081E58093A500089582E5809310
:1006F000A5000895883019F683E58093A500089534
:1007000022B79091A70082B7821B8917E0F3089562
:1007100087B38C6287BBC298C59822B79091A70017
:1007200082B7821B8917E0F3C29A22B79091A70083
:1007300082B7821B8917E0F3C2988091A300909141
:10074000A4008D5E924019F01092A6000895809149
:10075000A5008DB98091A2008EB91092A6000895CF
:1007600087B3837D87BB88B3837D88BB1DB808951D
:10077000CF93DF93C0E2E091A300F091A4008CEA54
:100780000995E091A300F091A40083E50995E0911B
:10079000A300F091A40080E00995D82FE091A30078
:1007A000F091A40080E00995D33561F11DB822B71E
:1007B0009091A70082B7821B8917E0F3C29A22B7F3
:1007C0009091A70082B7821B8917E0F3C29822B7E5
:1007D0009091A70082B7821B8917E0F38091A30054
:1007E0009091A4008D5E924031F0C15021F681E0DD
:1007F000DF91CF9108958091A5008DB98091A200DD
:100800008EB9F3CF80E0DF91CF910895CF92DF9240
:10081000EF92FF926B017C01E5DE8C2D8170880FD9
:10082000880F880FE091A300F091A40080620995E1
:10083000D701C60139E0B695A795979587953A9562
:10084000D1F7E091A300F091A4000995D701C6016A
:10085000B695A79597958795E091A300F091A40090
:100860000995E091A300F091A40080E0FF90EF9043
:10087000DF90CF900994CF92DF92EF92FF920F9387
:100880001F93CF93DF931F92CDB7DEB76B017C012F
:10089000142F2983A7DE8C2D8170880F880F880F75
:1008A000E091A300F091A40080640995D701C601EE
:1008B00059E0B695A795979587955A95D1F7E09108
:1008C000A300F091A4000995D701C601B695A7959C
:1008D00097958795E091A300F091A4000995E09188
:1008E000A300F091A400812F099529812223A9F06A
:1008F0001F3789F002B71EE1C701B60187DF8F37C6
:1009000061F482B7801B8D3310F002B711501111C2
:10091000F3CF81E003C08FE0B3D080E00F90DF9190
:10092000CF911F910F91FF90EF90DF90CF9008959E
:10093000CF92DF92EF92FF920F931F93CF93DF93AB
:100940001F92CDB7DEB76B017C0149834BDEE0918E
:10095000A300F091A4008CE40995D701C60179E0C9
:10096000B695A795979587957A95D1F7E091A300CD
:10097000F091A4000995D701C601B695A795979562
:100980008795E091A300F091A4000995E091A30060
:10099000F091A40080E0099549814F3FE1F002B752
:1009A0001EE1C701B60132DF8F3F99F482B7801B89
:1009B0008D3310F002B711501111F3CF81E00F9079
:1009C000DF91CF911F910F91FF90EF90DF90CF902B
:1009D000089580E0F4CF8FE053D080E0F0CF1F93F4
:1009E000CF93DF931F92CDB7DEB7182FE091A3000E
:1009F000F091A40080EA99830995E091A300F09119
:100A0000A4009981892F0995E091A300F091A40099
:100A1000812F0995E091A300F091A40080E00F9050
:100A2000DF91CF911F9109941F93CF93DF9300D053
:100A3000CDB7DEB7182FE091A300F091A40080ECB1
:100A40006A8399830995E091A300F091A4009981AC
:100A5000892F0995E091A300F091A400812F0995B9
:100A6000E091A300F091A4006A81862F09958EE1A0
:100A700007D080E00F900F90DF91CF911F910895E4
:100A8000882349F030E022B792B7921B9C33E0F301
:100A90003F5F3813F8CF0895BD9ABB98C39A50E2D0
:100AA00017D05A95E9F70895AC0188E605D0842F50
:100AB00003D089E601D0852F0FD028E030E0382719
:100AC00080FB869506D02A95D1F730FB02D000D066
:100AD0006894BB98C39A16F0C398BB9AE091A8009B
:100AE000F091A9003197F0F7C59AE6B3E3FBE091E6
:100AF000A800F091A9003197F0F7C598089520EC6F
:100B0000E7DF46F42A95E1F780E02AE1E5DF2A9560
:100B1000E9F7DECF28E030E0DBDF869587F938277C
:100B20002A95D1F7D5DF27F9322772F3D1DFD0CF5D
:100B3000DB01742FB9DF84E2BFDFE1DF8D937A95AB
:100B4000D1F70895DB01742FAFDF83EFB5DF8DE1BF
:100B5000B3DF84E6B1DF8D91AFDF82E7ADDFCFDFBA
:100B60008078D9F77A9589F70895CF93DF93EC01D0
:100B70008981813089F1823009F4B0C0833009F471
:100B800063C08430A1F1873009F483C0853009F453
:100B90000EC1863009F4A6C0883009F4DDC0893062
:100BA00009F40AC18A3009F439C18B3009F469C1EA
:100BB0008C3009F47BC18D3009F48DC18E3009F47D
:100BC0008FC18F3009F409C1803109F42EC18F37EC
:100BD00009F44CC180E02FC09A9B58C080916E00F0
:100BE0002FDD10926D00A99893DD80E024C08091E4
:100BF0006D00811112C04B8150E0542F44278A812F
:100C0000482B662757FD6095762F409369005093D7
:100C10006A0060936B0070936C008F8190E0982F56
:100C200088272E81822B909368008093670082E052
:100C300080936F008FEF20E730E0309387002093A0
:100C40008600DF91CF910895E091A300F091A40078
:100C50008A81099580937000E091A300F091A4002F
:100C60008B81099580937100E091A300F091A4001D
:100C70008C81099580937200E091A300F091A4000B
:100C80008D8109958093730084E0D5CF85E0D8DC11
:100C9000A8CF80916D00811112C04B8150E0542F7C
:100CA00044278A81482B662757FD6095762F40930D
:100CB000690050936A0060936B0070936C008F81A1
:100CC00090E0982F88272E81822B90936800809344
:100CD000670083E080936F008FEFADCF41DDA99A6D
:100CE00080E0A9CF80916D00811112C08B8190E0CE
:100CF000982F88272A81822BAA2797FDA095BA2FA3
:100D00008093690090936A00A0936B00B0936C008D
:100D10003C812D81822F8F7080936400822F807F91
:100D200040E1849FC0011124830F911D90936600C0
:100D30008093650020FD809363008F8190E0982F61
:100D400088272E81822B909368008093670081E032
:100D500080936F008FEF6FCF80916D00811112C073
:100D60008B8190E0982F88272A81822BAA2797FDD4
:100D7000A095BA2F8093690090936A00A0936B00AE
:100D8000B0936C001092660010926500109264009F
:100D90008F8190E0982F88272E81822B9093680076
:100DA0008093670084E080936F008FEF44CFE0DC96
:100DB0008093700081E03FCF81E080936D008A8155
:100DC0009B81AC81BD818093690090936A00A09360
:100DD0006B00B0936C0080E02ECF8B8190E0982F59
:100DE00088272A81822BAA2797FDA095BA2F809366
:100DF000690090936A00A0936B00B0936C008F81A0
:100E000090E0982F88272E81822B90936800809302
:100E1000670085E080936F008FEF0DCF8A8180930C
:100E20006E001092700081E006CF8B8190E0982FC9
:100E300088272A81822BAA2797FDA095BA2F809315
:100E4000690090936A00A0936B00B0936C008F814F
:100E500090E0982F88272E81822B909368008093B2
:100E6000670086E080936F008FEFE5CE81E080938E
:100E7000700010927100109272001092730084E062
:100E8000DACE8B8190E0982F88272A81822B90934D
:100E9000A9008093A800C29ABA9A83E0F1DDC298B3
:100EA000A99880E1EDDDF8DD80E0C5CE80EC04DEC0
:100EB00080E002DE8AE0E4DDC29A85E0E1DDC298EE
:100EC00085E0DEDD87B3837D87BB88B3837D88BB08
:100ED000A99A80E0B0CE13DE8093700081E0ABCEA3
:100EE0008A81EADD80E0A7CEEF92FF920F931F93F5
:100EF000CF93DF93E62E50916F002EEF250F223017
:100F000058F0553009F451C08FEFDF91CF911F9108
:100F10000F91FF90EF9008956623E9F160916900C9
:100F200070916A0040916B0020916C00EC01F12CF3
:100F300020C0CB0154DD88830091690010916A00C4
:100F400020916B0030916C000F5F1F4F2F4F3F4F70
:100F50000093690010936A0020936B0030936C003B
:100F6000F3942196FE1461F050916F00B801422F66
:100F7000232F5230F1F6842F922F48DC8883DCCF68
:100F800087E08F1540F48F2DDF91CF911F910F9146
:100F9000FF90EF90089510926F008E2DDF91CF910A
:100FA0001F910F91FF90EF900895462FBC01809103
:100FB000690090916A00BCDD0091690010916A009F
:100FC00020916B0030916C000E0D111D211D311D03
:100FD0000093690010936A0020936B0030936C00BB
:100FE0008E2D93CFDF92EF92FF920F931F93CF93AB
:100FF000DF939C01F62E40916F00413071F0443038
:1010000061F0463009F496C08FEFDF91CF911F91C8
:101010000F91FF90EF90DF900895FF2009F4B5C085
:101020005091690070916A0080916B0090916C0002
:10103000E901E12CD12C50C020916500309166006F
:10104000232B09F054C021E04881652F14DC209146
:101050006700309168002150310930936800209377
:101060006700232BE1F410926F008091640081FFF0
:101070003BC02091630030E0809165009091660054
:101080002817390789F16091690070916A00809191
:101090006B0090916C0048814BDCDD24D39400916F
:1010A000690010916A0020916B0030916C000F5F15
:1010B0001F4F2F4F3F4F0093690010936A002093FA
:1010C0006B0030936C00E3942196EF1451F1409142
:1010D0006F00502F712FC901413009F4ADCF6881E5
:1010E000852F972FA1DCB3CFDD24D394D8CF20E078
:1010F0004881652FC0DB809163008150809363003D
:101100008111A5CF6091690070916A0080916B0098
:1011100090916C0048810CDC8091650080936300A5
:1011200096CF8D2DDF91CF911F910F91FF90EF9072
:10113000DF900895462FBC018091690090916A006C
:1011400001DD8091690090916A00A0916B00B091DF
:101150006C008F0D911DA11DB11D809369009093AE
:101160006A00A0936B00B0936C008091670090912F
:1011700068008F1991099093680080936700892B0C
:1011800021F410926F0081E040CF80E03ECF2FE04D
:1011900088E190E00FB6F894A89581BD0FBE21BDFF
:1011A00018BA17BA83E084BB9EEF95BB83BFA9D85A
:1011B000889A8FEFA89598E29A95F1F78150D1F728
:0E11C00088987894A89574D7FDCFF894FFCF47
:0211CE00FF5AC6
:00000001FF
