:10000000FCC030C115C114C113C112C111C110C14E
:100010000FC10EC10DC10CC10BC10AC109C108C17C
:1000200007C106C105C118037200610070006800B5
:100030006E00650074002E006E00650074000403FD
:1000400009040A03310030003000300005010905C1
:10005000A1010901A10009300931150026FF007531
:100060000895028102C0050919012908150025011A
:10007000750195088102C01201010100000008818C
:1000800017990A09010002030105010905A10109E7
:1000900001A10009300931150026FF0075089502FD
:1000A0008102C00509190129041500250175019572
:1000B000048102750195048103C005010905A101B0
:1000C0000901A10009300931150026FF00750895C6
:1000D000028102C0050919012908150025017501D1
:1000E00095088102C01201010100000008811796E5
:1000F0000A09010102030112010101000000084088
:10010000177A0509010002030105010905A101098A
:1001100001A10009300931150026FF00750895027C
:100120008102C005091901290815002501750195ED
:10013000088102C0120101010000000881179D0A18
:1001400009010002030105010904A1010901A1003F
:10015000850109300931150026FF007508950281D7
:100160000205091901290815002501750195088165
:1001700002C0C005010904A1010901A1008502090D
:10018000300931150026FF00750895028102050926
:100190001901290815002501750195088102C0C0C3
:1001A00005010904A1010901A100850309300931F4
:1001B000150026FF0075089502810205091901291D
:1001C0000815002501750195088102C0C0050109C7
:1001D00004A1010901A10085040930093115002697
:1001E000FF0075089502810205091901290815000B
:1001F0002501750195088102C0C011241FBECFE5FD
:10020000D4E0DEBFCDBF11E0A0E6B0E0E0E9F6E16A
:1002100002C005900D92A835B107D9F711E0A8E505
:10022000B1E001C01D92AC3DB107E1F705D32ECA84
:10023000E7CEA82FB92F80E090E041E050EA60952A
:1002400030E009C02D9182279795879510F084277B
:100250009527305EC8F36F5FA8F30895EADF8D93AA
:100260009D930895CF93CFB7CF93C395809BE9F724
:10027000809B09C0809B07C0809B05C0809B03C0FA
:10028000809B01C0A3C0DF93C091BF01DD27CA538B
:10029000DE4F809B02C0DF91EBCF2F930F931F9314
:1002A00000B32FEF00FB20F94F933F9310B34FEFB4
:1002B000012700FB21F93BE031C04E7F012F10B335
:1002C000216028C0102F4D7F2260000000B329C09C
:1002D0004B7F2460012F000010B32BC010B3477F69
:1002E00028602AC04F7E00B320612CC04F7D10B320
:1002F00020622FC04F7B00B3206432C0422700B37E
:1003000049934FEF0000102710FB20F910B3157030
:10031000C9F1297F91F2012700FB21F900B3237F66
:1003200089F2315058F1102710FB22F910B3277EC3
:1003300079F2012700FB23F92F7C81F200B310270B
:1003400010FB24F92F7971F200C010B3012700FBD4
:1003500025F92F7359F200C000B3102710FB26F9BE
:10036000223040F200C010B3012700FB27F92430EF
:1003700028F64F77206810B30000F9CF10E41ABFB9
:10038000002719C03B503195C31BD04010E41ABF61
:100390000881033CF9F00B34E9F02091BD0119818B
:1003A000110F1213EDCF4A81441F093641F10D326E
:1003B00011F0013E29F70093C4013F914F911F9125
:1003C0000F912F91DF91CAB7C6FD4FCFCF91CFBF0D
:1003D000CF9118952091C401222379F31091C20185
:1003E000112369F534306AF13093C2012093BE01C4
:1003F0001091BF013BE0311B3093BF0122C000913F
:10040000C2010130E4F40AE54F7049F43091610013
:1004100034FD19C000936100C6EAD1E018C03091E4
:10042000B10134FD10C00093B101C2EBD1E00FC0A7
:100430002795A8F45150A9F4220F0000F9CF4AE5FE
:1004400003C042ED01C0432FC4E1D0E032E011B35C
:100450001560909A11BB02B320E415E05F93012769
:1004600056E002BB279520F4515021F4220FF9CF1A
:10047000012756E000003B5A02BBD0F2279528F432
:10048000515029F4220F0000F9CF012756E027959B
:1004900002BB20F4515021F4220FF9CF012756E07E
:1004A0002991332302BB21F60A7F1091C301110F5A
:1004B000C651D04002BB11F01093BD0110E41ABF29
:1004C000016011B31A7F402F4A7F5F9100C000C0C6
:1004D00002BB11BB42BB71CFCF93C62F2091B1019C
:1004E00024FF07C02091B20138E823272093B201EE
:1004F00003C02AE52093B101DC01E3EBF1E08C2F8E
:100500008E0F9D9191938E13FCCF6C2F83EB91E016
:10051000A5DECC5FC093B101CF910895CF93DF9357
:100520008091C201835087FDA8C09091BF012091A6
:10053000BE012D3209F09FC0883009F09CC0CCE08C
:10054000D0E0C91BD109CA53DE4F83EC8093A601CA
:100550008AE580936100109258018881807619F0B5
:10056000CE011DD17FC09A811092AF018981811186
:1005700006C01092B0012FEA31E082E06FC08530F2
:1005800019F49093C30167C0863009F04EC08B8187
:10059000813009F441C0823021F4CE01D2D090E004
:1005A00041C0833061F5911109C08EE390E09093D2
:1005B000C1018093C00190E484E034C0913049F4DB
:1005C00086E290E09093C1018093C00190E488E1BD
:1005D00029C0923049F484E890E09093C10180935F
:1005E000C00190E084E21EC09330D1F482E490E038
:1005F0009093C1018093C00190E48CE013C08132DC
:1006000049F481E891E09093C1018093C00190E4A6
:1006100089E008C0823221F4CE0193D090E402C078
:1006200090E480E0909358011DC0883069F08930D3
:1006300019F49093C5010FC08A3049F08B3059F4FA
:100640008BE48093B20107C025EC31E002C02FEAB1
:1006500031E081E003C02FEA31E080E03093C10156
:100660002093C0019F81911104C09E81981708F4C6
:10067000892F809360001092C2018091610084FFF5
:1006800046C0809160008F3F09F441C0C82F893077
:1006900008F0C8E08C1B809360008091A60198E868
:1006A00089278093A601CC2331F12091C00130919C
:1006B000C1018091580186FF0BC0A7EAB1E0F901A2
:1006C0008C2F8A0F94919D9331968A13FBCF09C08A
:1006D000D901E7EAF1E08C2F8E0F9D9191938E1353
:1006E000FCCF8FEF8C0F90E00196820F931F9093B9
:1006F000C1018093C0016C2F87EA91E0AFDDCC5F30
:10070000CC3019F08FEF80936000C093610084E1DA
:1007100090B3957031F48150D9F71092C3011092C3
:10072000BD01DF91CF91089585B7826085BF8BB7FA
:1007300080648BBF8BE48093B2018AE58093B10122
:100740000895FC018081807641F59181963031F5E4
:1007500093819230D1F0923269F09130F9F4809126
:100760007101909172019093C1018093C0018091B9
:100770007001089580917401909175019093C10169
:100780008093C00180917301089582E690E0909378
:10079000C1018093C00182E2089580E00895DC01E8
:1007A00089E591E09093C1018093C0018C9180769E
:1007B000803209F03FC011968C911197823089F0F8
:1007C0008A30F1F08130B1F5E0916D01F0916E0168
:1007D0000088F189E02D12966C9189E591E00995E8
:1007E000089512968C919FEF980F983018F590E02D
:1007F000825A9E4F9093C1018093C00181E0089579
:100800001296EC911297E1110BC0EFE5F1E013960F
:100810008C911397819381E0E736F807C1F70AC0FE
:100820008FEF8E0F883030F413968C91F0E0E25AFF
:10083000FE4F808380E00895AAE2B0E0E1E2F4E0B8
:10084000E9C6FE01B39688E0DF01982F1D929A95C4
:10085000E9F7EFE5F1E0DF011D928A95E9F7B89A33
:1008600087B3897F87BB88B3866088BBC0988FE2D7
:1008700095E70197F1F700C0000086B3867090E01D
:100880009595879582309105F1F183309105E9F1D5
:10089000019709F103D590936E0180936D01DC01FE
:1008A0001A96ED91FC911B970995882399F182E2A4
:1008B000E3E1F1E0DE01119601900D928A95E1F7F6
:1008C00082E2FE013196A4E8B0E001900D928A9593
:1008D000E1F789D61BC084D590936E0180936D019A
:1008E00082E2E5E3F1E0DE01119601900D928A9536
:1008F000E1F782E2FE013196A4E8B0E001900D92AA
:100900008A95E1F707C09DD201C0A4D190936E01F2
:1009100080936D01E0916D01F0916E01848195816C
:100920009093750180937401828180937301808517
:100930009185009731F090937201809371018681C7
:1009400007C085EE90E09093720180937101AFD45F
:10095000809370018091730180937B0014BA8FEFB4
:1009600085BB88EF82BB85E081BB11BA83BF8FE076
:1009700085BD84EC83BD85B78F7885BFE0916D011F
:10098000F0916E010284F385E02D0995CDDE789417
:1009900011E0BB24B394EE24E394F12C90E8A92E4B
:1009A000A895BCDD112341F0E0916D01F0916E013D
:1009B0000484F585E02D0995E0916D01F0916E01BB
:1009C0000288F389E02D309709F0099508B600FEFA
:1009D00025C0B8BEE0916D01F0916E01208131819A
:1009E000AFE5B1E0FE01B39680E090E0C12C821744
:1009F0009307ACF44D91442371F05081553018F0B9
:100A00005550508308C04083A701082E01C0440FF1
:100A10000A94EAF7C42A01963196E9CFC12C08B6A8
:100A200007FE3BC0A8BEE0916D01F0916E01828986
:100A30009389892B69F485B7806885BF889585B7C8
:100A40008F7785BF8BE291E00197F1F700C000003E
:100A5000E0916D01F0916E010484F585E02D09951A
:100A600000E010E0E0916D01F0916E0180819181D4
:100A70000817190794F40684F785E02D81E0800FAC
:100A80000995882339F0C701002E01C0880F0A9408
:100A9000EAF7C82A0F5F1F4FE5CFC11002C010E070
:100AA0007FCF00E010E0D12CE0916D01F0916E015C
:100AB000808191810817190794F7C601002E02C0A2
:100AC000959587950A94E2F780FF21C08091B10146
:100AD00084FF1DC00088F189E02D61E0600F87E68A
:100AE00091E00995682F87E691E0F6DC8091B101ED
:100AF00084FD0DC013DDA895E0916D01F0916E01AC
:100B00000288F389E02D309789F30995EFCF0F5FC5
:100B10001F4FCACFFC01009709F445C0909179019D
:100B200060917A01862F807F803F21F481E080935D
:100B3000760102C01092760190FD02C050E801C01B
:100B40005FEF91FD50E092FD02C030E801C03FEF41
:100B500093FD30E050833183492F407450E085E0AD
:100B6000559547958A95E1F7292F207230E053E09B
:100B7000359527955A95E1F7242B892F881F8827CB
:100B8000881F282B9071892F90E095958795282BA9
:100B9000228380917601811106C030E1639FC001FC
:100BA0001124282B22838091790190917A019093CE
:100BB00078018093770183E00895AC9A30E33A9509
:100BC000F1F7AC9888E090E020E038E13A95F1F751
:100BD000AD98220F9B9B216038E13A95F1F7AD9AD1
:100BE0000197009791F72093790188E090E038E130
:100BF0003A95F1F7AD9826959B9B206838E13A9598
:100C0000F1F7AD9A0197009791F720937A01089533
:100C1000CF93CFB7F894A49AA59AA398AB9AAD9A1C
:100C2000AC98CBDFCFBF80E0CF9108958091A60034
:100C30009091A700892B31F01092A7001092A60086
:100C400081E0089542E050E067E771E089E791E0D4
:100C500010D508958CE490E09093AD008093AC00A3
:100C600088EA90E008959A9905C081E080937E011A
:100C700080937D01089580917D01811109C081E0FB
:100C800020917C0190917B01291303C080E008959D
:100C900081E00895FC0180917C0180937B01309775
:100CA00009F48EC080FD02C020E801C02FEF81FD55
:100CB00020E082FD02C090E801C09FEF83FD90E03C
:100CC00020839183128220917F01222309F45CC04A
:100CD000982F907C40917E012230F1F02330C1F1B9
:100CE000282F207430E055E0359527955A95E1F787
:100CF000881F8827881F822B903C09F48460828398
:100D0000442309F45DC082818860828310927E0151
:100D100081E080937D0154C0442331F021E022839F
:100D200010927E0120937D014281903CE9F0282FB2
:100D3000207430E0A5E035952795AA95E1F7242B9E
:100D4000807890E0B4E095958795BA95E1F736C044
:100D5000442339F022E0228310927E0121E0209387
:100D60007D014281903C19F44460428329C0282FC0
:100D7000207430E073E0359527957A95E1F7242BC0
:100D8000881F8827881F1AC0482F407450E095E0BC
:100D9000559547959A95E1F7282F207230E053E05A
:100DA000359527955A95E1F7242B982F991F992768
:100DB000991F292B807190E095958795282B228388
:100DC00083E00895AC9A30E33A95F1F7AC9888E067
:100DD00090E020E038E13A95F1F7AD98220F9B9B27
:100DE000216038E13A95F1F7AD9A0197009791F7B4
:100DF00020937C010895A49AA59AA398AB9AAD9AE2
:100E0000AC98A298AA9A84B38C7F84BBA89AA9981C
:100E1000A19A87EB9BE00197F1F700C00000989939
:100E20000EC0D0DF80917C0187FF02C082E005C048
:100E300086FF02C083E001C081E080937F0180E0F3
:100E4000089589E890E09093C1008093C00087E7FF
:100E500090E09093C5008093C4008CEB90E00895DF
:100E600093B386B395FB442740F9292F207130E0D6
:100E700053E0359527955A95E1F7422B282F20729C
:100E8000422B292F287030E035952795422B392F9A
:100E90003470330F342B9270990F990F990F932B55
:100EA0002091E600243011F0892F08958071880F79
:100EB000880F892B0895009751F02091830130917C
:100EC000840140918501FC0120833183428380911C
:100ED000830190918401A09185018093800190937A
:100EE0008101A093820183E00895EF92FF920F9316
:100EF0001F93CF93DF93EC01A89A80E58A95F1F7D1
:100F0000AFDF182F8091E600823028F418838FEF2E
:100F100089838A8329C0A89890E59A95F1F7A0DF84
:100F2000E82EA89A80E58A95F1F7A89890E59A9519
:100F3000F1F796DFF82EA89A80E58A95F1F7A89840
:100F400090E59A95F1F78CDF082FA89A80E58A95AD
:100F5000F1F786DFA89890E59A95F1F7A89A18839B
:100F6000E9828A83FB820C83CDB7DEB7E6E072C3E9
:100F70008091D0009091D100892B31F01092D10056
:100F80001092D00081E0089543E050E060E871E005
:100F900083E891E06ED30895A5E0B0E0E1EDF7E0DD
:100FA0003BC38091E600843009F058C0109186015F
:100FB00010FF06C080E090E0EE24E394F12C04C022
:100FC00081E090E0E12CF12CFC01ED57FE4F20E890
:100FD00020831092850144DF84FD05C09091850136
:100FE000916090938501807411FF0AC0811105C042
:100FF0008091850182608093850104E010E01DC02E
:101000008111FBCF809185018160F5CF29DF85FFBC
:1010100018C026DFD82E88E08A95F1F721DF85FFFA
:1010200006C088EF8A95F1F71BDF85FF7FC001506E
:1010300011090115110509F48FC074E6C72ED12CD2
:10104000E5CF84E08A95F1F781E0C81AD108C11490
:10105000D104E1F688EF8A95F1F7E9CFCE01019648
:1010600044DF898180952A8120959B81909580FD20
:1010700002C030E801C030E081FD3FEF82FD02C0D8
:1010800040E801C040E083FD4FEF4093830130937F
:101090008401109285014091E600382F30718072F2
:1010A0004230B8F124FF03C051E05093850133234F
:1010B00029F030918501326030938501882329F031
:1010C0008091850184608093850125FF05C0809112
:1010D00085018860809385014330F1F592FF05C05A
:1010E0008091850180618093850191FF05C0809189
:1010F000850180628093850190FF05C08091850104
:1011000080648093850193FF27C08091850180686A
:101110000AC0332319F091E0909385018823E1F010
:101120008091850182608093850116C099DEC82E6A
:1011300088E08A95F1F794DE85FD79CF9D2D929513
:10114000907F8C2D8F70982BE114F10409F090950D
:10115000F701ED57FE4F90832596E8E079C2EF92B4
:10116000FF920F931F93CF93DF93F4E6EF2EF12CB2
:10117000C0E0D0E000E010E073DE85FF02C0219601
:1011800002C00F5F1F4F88E28A95F1F781E0E81AED
:10119000F108E114F10481F70232110534F081E025
:1011A00090E0A29724F480E002C080E090E0CDB708
:1011B000DEB7E6E04FC2A5E0B0E0E0EEF8E031C215
:1011C0001FB7F894B99AC19887B38F7C87BB88B34F
:1011D000806388BBA09AA89A84B3817C84BB85B3C2
:1011E0008E6385BB2FE789EA93E0215080409040D1
:1011F000E1F700C00000B3DF892B21F184E0809388
:10120000E60082E090E09093870180938601C4DE3F
:1012100010928701109286012091850120FF06C05F
:1012200081E090E0909387018093860121FF31C097
:1012300080918601909187018260909387018093CD
:10124000860127C0CE01019650DE81E08093E60042
:1012500089818F70833019F41FBF8FEF1CC09A8172
:101260008F3089F4892F8F70833069F48C818F706F
:10127000833021F48D818F70833011F083E001C0C1
:1012800082E08093E60095FD03C083E08093E60052
:1012900083DE1FBF80E02596E3E0DFC18AEB90E0AC
:1012A0009093D7008093D60082ED90E0089582E17C
:1012B00090E00895009751F020918B0130918C01BE
:1012C00040918D01FC0120833183428380918B0109
:1012D00090918C01A0918D01809388019093890158
:1012E000A0938A0183E00895A89887EB9BE001977B
:1012F000F1F700C00000A99A87EB9BE00197F1F796
:1013000000C0000023B3A99887EB9BE00197F1F799
:1013100000C0000083B3A89A8C7334E0839FC0019F
:1013200011242C7326952695282B209523FD02C089
:1013300080E801C080E021FD8FEF20FD02C090E831
:1013400001C090E022FD9FEF90938B0180938C0170
:1013500027FD03C010928D0103C081E080938D01B1
:1013600026FF05C080918D01826080938D0125FF4D
:1013700005C080918D01846080938D0124FF05C09C
:1013800080918D01886080938D010895CF93CFB7B0
:10139000F894B99AC19884B3837C84BB85B38C6379
:1013A00085BB85B3836085BB84B3836084BB9CDFCE
:1013B000CFBF80E0CF9108958091E7009091E80041
:1013C000892B31F01092E8001092E70081E0089537
:1013D00043E050E068E871E08BE891E04AD108957D
:1013E00089E091E09093EE008093ED0087EF90E02C
:1013F0009093F2008093F10089EE90E008959FB7FA
:10140000F894B99AC198BD9AC59AA09AA89A84B33B
:10141000817C84BB85B38E6385BB9FBF80E00895CC
:10142000A2E1B0E0E5E1FAE0F3C0A8988BE291E038
:101430000197F1F700C00000FE01319680E090E0D6
:101440004F016FE080FF27C0C59A999BFECF43B341
:10145000242F207130E053E0359527955A95E1F718
:1014600045FB552750F9522B242F287030E0359535
:101470002795522B342F3470330F352B3627319369
:10148000ABE2B1E01197F1F700C0000001968231A4
:101490009105C1F604C0C5989999FECFD8CFC59AD9
:1014A000A89A89818F30A9F58A818F3091F5FE0144
:1014B00033964AE951E05E01B7E0AB0EB11C66E03D
:1014C00070E081918E3041F08F3019F020E030E0F3
:1014D00005C022E030E002C023E030E080E090E090
:1014E0008401060F171F8217930764F47A01E80E30
:1014F000F91E6801C80ED91ED601DC90D701DC9216
:101500000196F1CF620F731F4D5F5F4FEA15FB0528
:10151000C1F66296ECE098C0CF93DF93FC0166239E
:1015200009F443C0262F30E021503109C901880F4A
:10153000991F820F931FDC01A656BE4FEC01C257C4
:10154000DE4F2D913D914C911297288339834A8328
:101550008C9180FD02C020E801C020E081FD2FEFCA
:1015600082FD02C030E801C030E083FD3FEF1196FC
:101570009C91119790FD02C080E001C082E091FD36
:10158000846092FD816093FD886012969C9190FD2D
:10159000806491FD806292FD806193FD806860832C
:1015A00031832283838384E001C080E0DF91CF9187
:1015B00008952091FD003091FE00232B31F0109210
:1015C000FE001092FD0081E00895815023E0829F8B
:1015D000C0011124BC0162577E4F43E050E08656A3
:1015E0009E4F47D0089586E491E090930401809344
:1015F000030184E391E090930801809307018FEF4A
:1016000090E008952F923F924F925F926F927F9257
:101610008F929F92AF92BF92CF92DF92EF92FF9202
:101620000F931F93CF93DF93CDB7DEB7CA1BDB0BAE
:101630000FB6F894DEBF0FBECDBF09942A88398853
:1016400048885F846E847D848C849B84AA84B9845A
:10165000C884DF80EE80FD800C811B81AA81B98166
:10166000CE0FD11D0FB6F894DEBF0FBECDBFED017A
:101670000895FB01DC0104C08D910190801921F4D3
:1016800041505040C8F7881B990B0895F894FFCF3C
:10169000FF5A090222000101000032090400000182
:1016A000030000000921010100012200000705815B
:1016B0000308000A22032800530029004E004500B9
:1016C00053002F00410074006100720069005F0048
:1016D000550053004200010001002B0000000000F3
:1016E00000000806DD0516068A050000010031002D
:1016F000000012000000FB06E2063B064A06330625
:10170000010001002B00000000000000DB08CC07F6
:10171000B8075B07000002010001002B0000001267
:10172000000000C6097409DC095A09000001000420
:1017300000B400000012000000FF09100AD90A8C52
:101740000A0000220353006500670061004D007528
:10175000006C00740069007400610070005F005547
:10176000005300420022034E00650063002D00502C
:10177000006300200065006E00670069006E006570
:08178000002000200020000001
:00000001FF
