:10000000F3C027C10CC10BC10AC109C108C107C196
:1000100006C105C104C103C102C101C100C1FFC0C5
:10002000FEC0FDC0FCC018037200610070006800D3
:100030006E00650074002E006E00650074000403FD
:1000400009040A03310030003000300005010905C1
:10005000A1010901A10009300931150026FF007531
:100060000895028102C005091901290A1500250118
:100070007501950A8102750195068101C005010986
:1000800005A1010901A10009300931150026FF0071
:10009000750895028102C00509190129041500257A
:1000A00001750195048102750195048103C0050164
:1000B0000905A1010901A10009300931150026FF38
:1000C00000750895028102C005091901290A150069
:1000D00025017501950A8102750195068101C012FD
:1000E000010101000000088117960A0701010203BF
:1000F0000105010905A1010901A100093009311516
:100100000026FF00750895028102C0050919012922
:100110000A150025017501950A8102750195068170
:1001200001C0120101010000000881179D0A0701AA
:100130000102030105010904A1010901A1008501D2
:1001400009300931150026FF007508950281020566
:10015000091901290815002501750195088102C0BA
:10016000C005010904A1010901A1008502093009A6
:1001700031150026FF007508950281020509190155
:10018000290815002501750195088102C0C00501E7
:100190000904A1010901A1008503093009311500F5
:1001A00026FF007508950281020509190129081525
:1001B000002501750195088102C0C005010904A14F
:1001C000010901A100850409300931150026FF004D
:1001D00075089502810205091901290815002501F4
:1001E000750195088102C0C011241FBECFE5D4E07F
:1001F000DEBFCDBF11E0A0E6B0E0E0E1F4E102C077
:1002000005900D92AE32B107D9F711E0AEE2B1E040
:1002100001C01D92AF3AB107E1F707D3F7C8F0CE9E
:10022000A82FB92F80E090E041E050EA609530E0DF
:1002300009C02D9182279795879510F084279527DF
:10024000305EC8F36F5FA8F30895EADF8D939D9346
:100250000895CF93CFB7CF93C395809BE9F7809B49
:1002600009C0809B07C0809B05C0809B03C0809B0A
:1002700001C0A3C0DF93C0919201DD27C756DE4FB6
:10028000809B02C0DF91EBCF2F930F931F9300B39E
:100290002FEF00FB20F94F933F9310B34FEF01274F
:1002A00000FB21F93BE031C04E7F012F10B32160EC
:1002B00028C0102F4D7F2260000000B329C04B7F63
:1002C0002460012F000010B32BC010B3477F2860BB
:1002D0002AC04F7E00B320612CC04F7D10B3206236
:1002E0002FC04F7B00B3206432C0422700B3499334
:1002F0004FEF0000102710FB20F910B31570C9F163
:10030000297F91F2012700FB21F900B3237F89F2B5
:10031000315058F1102710FB22F910B3277E79F2E3
:10032000012700FB23F92F7C81F200B3102710FB7B
:1003300024F92F7971F200C010B3012700FB25F9D1
:100340002F7359F200C000B3102710FB26F922309A
:1003500040F200C010B3012700FB27F9243028F633
:100360004F77206810B30000F9CF10E41ABF0027C0
:1003700019C03B503195C31BD04010E41ABF08810F
:10038000033CF9F00B34E9F0209190011981110F31
:100390001213EDCF4A81441F093641F10D3211F09D
:1003A000013E29F7009397013F914F911F910F91C3
:1003B0002F91DF91CAB7C6FD4FCFCF91CFBFCF915D
:1003C000189520919701222379F31091950111231B
:1003D00069F534306AF130939501209391011091C1
:1003E00092013BE0311B3093920122C000919501B4
:1003F0000130E4F40AE54F7049F43091600034FDB7
:1004000019C000936000C9E7D1E018C030918401A1
:1004100034FD10C000938401C5E8D1E00FC02795DA
:10042000A8F45150A9F4220F0000F9CF4AE503C007
:1004300042ED01C0432FC4E1D0E032E011B31560BA
:10044000909A11BB02B320E415E05F93012756E0B8
:1004500002BB279520F4515021F4220FF9CF012738
:1004600056E000003B5A02BBD0F2279528F45150C9
:1004700029F4220F0000F9CF012756E0279502BB8F
:1004800020F4515021F4220FF9CF012756E0299191
:10049000332302BB21F60A7F10919601110FC6513A
:1004A000D04002BB11F01093900110E41ABF01601C
:1004B00011B31A7F402F4A7F5F9100C000C002BB7A
:1004C00011BB42BB71CFCF93C62F2091840124FF73
:1004D00007C02091850138E823272093850103C0B8
:1004E0002AE520938401DC01E6E8F1E09C2F9E0FD1
:1004F0008D918193892F8E1B1816D4F36C2F86E86B
:1005000091E0A3DECC5FC0938401CF910895CF9397
:10051000DF9380919501835087FDA8C0909192014F
:10052000209191012D3209F09FC0883009F09CC0C4
:10053000CCE0D0E0C91BD109C756DE4F83EC8093D5
:1005400079018AE58093600010922E01888180767F
:1005500019F0CE011DD17FC09A811092820189814C
:10056000811106C01092830122E831E082E06FC061
:10057000853019F49093960167C0863009F04EC01B
:100580008B81813009F441C0823021F4CE01D2D078
:1005900090E041C0833061F5911109C08EE390E095
:1005A000909394018093930190E484E034C091305F
:1005B00049F486E290E0909394018093930190E453
:1005C00088E129C0923049F484E890E09093940146
:1005D0008093930190E084E21EC09330D1F482E4D2
:1005E00090E0909394018093930190E48CE013C089
:1005F000813249F481E491E09093940180939301D6
:1006000090E489E008C0823221F4CE0193D090E4D6
:1006100002C090E480E090932E011DC0883069F004
:10062000893019F4909398010FC08A3049F08B30CB
:1006300059F48BE48093850107C028E931E002C0BA
:1006400022E831E081E003C022E831E080E030932D
:100650009401209393019F81911104C09E8198176A
:1006600008F4892F809361001092950180916000B9
:1006700084FF46C0809161008F3F09F441C0C82FBC
:10068000893008F0C8E08C1B80936100809179016B
:1006900098E8892780937901CC2331F12091930147
:1006A0003091940180912E0186FF0BC0F901AAE7D9
:1006B000B1E08C2F8A0F94919D9331968A13FBCFD2
:1006C00009C0D901EAE7F1E08C2F8E0F9D9191933B
:1006D0008E13FCCF8C2F815090E00196820F931FD8
:1006E00090939401809393016C2F8AE791E0ADDDA4
:1006F000CC5FCC3019F08FEF80936100C093600025
:1007000084E190B3957031F48150D9F7109296013D
:1007100010929001DF91CF91089585B7826085BFD7
:100720008BB780648BBF8BE4809385018AE58093CF
:1007300084010895FC018081807641F581818630B5
:1007400029F583818230D1F0823269F08130F1F471
:1007500080913001909131019093940180939301A5
:1007600080913201089580913301909134019093EA
:1007700094018093930180913501089582E690E081
:10078000909394018093930182E2089580E008950C
:10079000DC0186E391E090939401809393018C9126
:1007A0008076803209F03FC011968C91119782308B
:1007B00089F08A30F1F08130B1F5E0913C01F0919F
:1007C0003D010088F189E02D12966C9186E391E05D
:1007D0000995089512968C91982F9150983018F59C
:1007E00090E0835C9E4F909394018093930181E00D
:1007F00008951296EC911297E1110BC0EEE3F1E02F
:1008000013968C911397819381E0E634F807C1F732
:100810000AC08E2F8150883030F413968C91F0E00E
:10082000E35CFE4F808380E00895AAE2B0E0EAE155
:10083000F4E0B0C5FE01B39688E0DF01982F1D9269
:100840009A95E9F7EEE3F1E0DF011D928A95E9F769
:10085000B89A87B3897F87BB88B3866088BBC09806
:100860008FE295E70197F1F700C0000086B386702C
:1008700090E0959587958230910541F183309105FF
:1008800039F1019709F1BED390933D0180933C016A
:10089000DC011A96ED91FC911B9709958823E9F0EC
:1008A00082E2E9E0F1E0DE01119601900D928A9575
:1008B000E1F782E2FE013196A4E8B0E001900D92EA
:1008C0008A95E1F750D505C046D403C021D201C0B6
:1008D000B1D190933D0180933C01E0913C01F091B6
:1008E0003D0184819581909334018093330182810D
:1008F0008093350180859185009731F09093310187
:1009000080933001868107C08FED90E09093310194
:100910008093300180D380933201809135018093A0
:100920007B0014BA8FEF85BB88EF82BB85E081BB6B
:1009300011BA83BF8FE085BD84EC83BDE0913C019B
:10094000F0913D010284F385E02D0995E6DE78946F
:1009500011E0DD24D394EE24E394F12C90E8C92E29
:1009600001C010E0A895D3DD112341F0E0913C01D6
:10097000F0913D010484F585E02D099508B600FE4F
:1009800026C0D8BEE0913C01F0913D01208131812B
:10099000AEE3B1E0FE01B39680E090E0A12C13C07D
:1009A0004D91442371F05081553018F055505083CB
:1009B00008C04083A701082E01C0440F0A94EAF73B
:1009C000A42A019631968217930754F301C0A12CF3
:1009D00008B607FE26C0C8BEE0913C01F0913D017B
:1009E0000484F585E02D099500E010E011C006842F
:1009F000F785E02D802F8F5F0995882339F0C70197
:100A0000002E01C0880F0A94EAF7A82A0F5F1F4F33
:100A1000E0913C01F0913D01808191810817190717
:100A200034F3A11025C09DCFC501002E02C09595BD
:100A300087950A94E2F780FD03C00F5F1F4F1DC02A
:100A40008091840184FFF9CF602F6F5F0088F18966
:100A5000E02D86E491E00995682F86E491E033DD8E
:100A600002C055DDA8958091840184FFFACFE5CFBF
:100A700000E010E0BB24A7FCB094E0913C01F091B1
:100A80003D01808191810817190774F26ACFFC013A
:100A9000009709F47BC080914C0190914D01492F42
:100AA000407F403F21F441E040934E0102C010924C
:100AB0004E0180FF03C06FEF70E002C060E870E09D
:100AC00081FF02C060E070E082FF03C04FEF50E0A2
:100AD00002C040E850E083FF02C040E050E0608385
:100AE00041831282138250914E01482F407451115C
:100AF00033C0682F607870E0A6E075956795AA9579
:100B0000E1F750E0B6E055954795BA95E1F7462BE9
:100B1000292F217030E0220F331F220F331F422B69
:100B2000392F3270330F330F342B292F2870220FB7
:100B3000220F232B9470990F990F922B928385FB90
:100B4000222720F9807190E063E0959587956A955A
:100B5000E1F7822B83831AC050E095E055954795C5
:100B60009A95E1F7282F207230E053E035952795CC
:100B70005A95E1F7242B982F991F9927991F292B14
:100B8000807190E095958795282B228380914C0168
:100B900090914D019093500180934F0184E008950E
:100BA000AC9A30E33A95F1F7AC9888E090E020E019
:100BB00038E13A95F1F7AD98220F9B9B216038E11F
:100BC0003A95F1F7AD9A019799F720934C0188E097
:100BD00090E038E13A95F1F7AD9826959B9B206817
:100BE00038E13A95F1F7AD9A019799F720934D01C5
:100BF0000895CF93CFB7F894A49AA59AA398AB9AE7
:100C0000AD9AAC98CDDFCFBF80E0CF9108958091B1
:100C1000B8009091B900892B31F01092B900109270
:100C2000B80081E0089542E050E06FE471E08CE4A8
:100C300091E0DFC38CE490E09093AB008093AA0036
:100C400086EA90E00895A49AA59AA398AB9AAD9AE3
:100C5000AC9880E008958091510190915201891BD8
:100C60000895FC010097B1F18091510180FF03C00C
:100C70004FEF50E002C040E850E081FF02C040E08A
:100C800050E082FF03C02FEF30E002C020E830E0E8
:100C900083FF02C020E030E040832183482F40746E
:100CA00050E095E0559547959A95E1F7282F2072E9
:100CB00030E053E0359527955A95E1F7242B982F8E
:100CC000991F9927991F292B807190E095958795F9
:100CD000282B2283809151018093520183E0089553
:100CE000AC9A30E33A95F1F7AC9888E090E020E0D8
:100CF00038E13A95F1F7AD98220F9B9B216038E1DE
:100D00003A95F1F7AD9A019799F72093510108951B
:100D10008DE790E09093BF008093BE008AEB90E057
:100D2000089583B396B385FB442740F9282F20719B
:100D300030E053E0359527955A95E1F7422B9072B4
:100D4000492B282F287030E035952795422B982F76
:100D50009470990F942B8270880F880F880F892BBD
:100D60000895009769F040915301509154016091AA
:100D7000550170915601FC01408351836283738356
:100D80008091530190915401A0915501B091560169
:100D90008093570190935801A0935901B0935A0141
:100DA00084E00895EF92FF920F931F93CF93DF9308
:100DB000EC01A89A80E58A95F1F7B3DF182F8091AE
:100DC000E000823028F418838FEF89838A8329C05A
:100DD000A89890E59A95F1F7A4DFE82EA89A80E507
:100DE0008A95F1F7A89890E59A95F1F79ADFF82E91
:100DF000A89A80E58A95F1F7A89890E59A95F1F779
:100E000090DF082FA89A80E58A95F1F78ADFA898E5
:100E100090E59A95F1F7A89A1883E9828A83FB8274
:100E20000C83CDB7DEB7E6E0D5C2A5E0B0E0EAE1DD
:100E3000F7E0B8C2CE010196B5DF498140955A81ED
:100E400050956B81609540FF03C080E090E002C048
:100E500080E890E041FF02C08FEF90E042FF03C0C6
:100E600020E030E002C020E830E043FF02C02FEF76
:100E700030E0209353018093540110925501109259
:100E800056019091E000923008F452C0842F807196
:100E90009330C9F054FF03C091E09093550188232B
:100EA00029F08091550182608093550145FF05C06E
:100EB0008091550184608093550155FF45C0809114
:100EC000550188603FC061FF03C091E090935501D8
:100ED000882329F08091550182608093550145FF58
:100EE00005C08091550184608093550160FF05C065
:100EF0008091550188608093550154FF05C0809111
:100F0000550180618093550163FF05C080915501B3
:100F100080628093550162FF03C081E08093560197
:100F200055FF12C0809156018260809356010CC01B
:100F300044FF03C081E08093550145FF05C08091C7
:100F400055018260809355012596E2E047C2A5E0F5
:100F5000B0E0ECEAF7E025C21FB7F894B99AC1985F
:100F6000BD98C59AA09AA89A84B3817C84BB85B3A6
:100F70008E6385BB2FE789EA93E021508040904043
:100F8000E1F700C00000CE0101960CDF81E0809304
:100F9000E00089818F70833019F41FBF8FEF1CC070
:100FA0008F3089F48A818F70833069F48C818F70DF
:100FB000833021F48D818F70833011F083E001C084
:100FC00082E08093E0008A8185FD03C083E0809306
:100FD000E0002BDF1FBF80E02596E3E0FEC180919B
:100FE000DE009091DF00892B31F01092DF0010922B
:100FF000DE0081E0089544E050E067E571E083E5BC
:1010000091E0F7C18EEA90E09093D1008093D000F8
:101010008CEC90E0089582E190E00895009751F003
:1010200020915B0130915C0140915D01FC012083C6
:101030003183428380915B0190915C01A0915D01BD
:1010400080935E0190935F01A093600183E0089517
:10105000A89887EB9BE00197F1F700C00000A99AE0
:1010600087EB9BE00197F1F700C0000043B3A9981C
:1010700087EB9BE00197F1F700C0000083B3A89ACB
:101080008C7324E0829FC00111244C7346954695D1
:10109000482B409543FF03C080E090E002C080E809
:1010A00090E041FF02C08FEF90E040FF03C020E0DE
:1010B00030E002C020E830E042FF02C02FEF30E015
:1010C00020935B0180935C0147FD03C010925D019A
:1010D00003C081E080935D0146FF05C080915D0102
:1010E000826080935D0145FF05C080915D01846051
:1010F00080935D0144FF05C080915D01886080930D
:101100005D010895CF93CFB7F894B99AC19884B38D
:10111000837C84BB85B38C6385BB85B3836085BBCF
:1011200084B3836084BB94DFCFBF80E0CF91089508
:101130008091F3009091F400892B31F01092F4002B
:101140001092F30081E0089543E050E06EE571E015
:101150008BE591E04EC181EF90E09093E6008093A3
:10116000E50081EE90E008959FB7F894B99AC19890
:10117000BD9AC59AA09AA89A84B3817C84BB85B392
:101180008E6385BB9FBF80E00895A2E1B0E0EAECEA
:10119000F8E000C1A8988BE291E00197F1F700C058
:1011A0000000FE01319680E090E06FE080FF21C0FA
:1011B000C59A999BFECF43B3242F207130E0B3E052
:1011C00035952795BA95E1F745FB552750F9522BF0
:1011D000242F287030E035952795522B342F34700A
:1011E000330F352B36273193019682319105F1F675
:1011F00004C0C5989999FECFDECFC59AA89A898177
:101200008F30F1F58A818F30D9F5FE01339621E6D2
:1012100031E08E01095F1F4F46E050E0A191AE50D2
:10122000A23040F4B0E0A55DBE4F6C91772767FD1A
:10123000709502C060E070E080E090E0AA24A39482
:10124000B12CAC0EBD1EA40EB51E0BC07901E80E6C
:10125000F91E6501C80ED91ED601DC90D701DC92BB
:1012600001968617970794F3CB0177FF02C080E0C1
:1012700090E0480F591F2D5F3F4FE017F10771F6BF
:101280006296EAE0A3C0CF93DF93FC01662309F4E2
:101290004DC0262F332727FD309521503109C90134
:1012A000880F991F820F931FDC01AF59BE4FEC01CD
:1012B000C359DE4F2D913D914C911297288339836C
:1012C0004A834C9140FF03C080E090E002C080E878
:1012D00090E041FF02C08FEF90E042FF03C020E0AA
:1012E00030E002C020E830E043FF02C02FEF30E0E2
:1012F00011965C91119750FF02C042E001C040E09E
:1013000051FD446052FD416053FD486012965C916E
:1013100050FD406451FD406252FD406153FD406804
:10132000608321838283438384E001C080E0DF9176
:10133000CF9108952091070130910801232B31F0BE
:10134000109208011092070181E00895815023E076
:101350008202C0011124BC0163597E4F43E050E07A
:101360008F599E4F46C084E391E09093FA0080939A
:10137000F90082E291E09093FE008093FD0085EFFA
:1013800090E008952F923F924F925F926F927F92DA
:101390008F929F92AF92BF92CF92DF92EF92FF9285
:1013A0000F931F93CF93DF93CDB7DEB7CA1BDB0B31
:1013B0000FB6F894DEBF0FBECDBF09942A883988D6
:1013C00048885F846E847D848C849B84AA84B984DD
:1013D000C884DF80EE80FD800C811B81AA81B981E9
:1013E000CE0FD11D0FB6F894DEBF0FBECDBFED01FD
:1013F0000895FB01DC0104C08D910190801921F456
:1014000041505040C8F7881B990B0895F894FFCFBE
:101410005AFF090222000101000032090400000104
:1014200003000000092101010001220000070581DD
:101430000308000A22032800530029004E0045003B
:101440005300200041007400610072006900200018
:101450005500530042000100310000000000000070
:10146000F905D0050706470501000100310000001D
:1014700000000000230670062B0631060100310033
:10148000000000000000A7071507EF07B1060100E4
:1014900002010031000000000000008208280898C6
:1014A000080E0801000400B400000012000000B49F
:1014B00008C5089A09430901002203530065006723
:1014C0000061004D0075006C0074006900740061DB
:0E14D00000700020005500530042000302008F
:00000001FF
