:100000007CC01FC295C094C093C092C091C090C0E4
:100010008FC08EC08DC08CC08BC08AC089C088C084
:1000200087C086C085C0090222000101008019092D
:100030000400000103010100092101010001223F28
:10004000000705810308000A1201100100000008E2
:10005000424231E100010102000110035000610041
:1000600073007300670065006E00200363006F007B
:100070006400650061006E0064006C006900660049
:1000800065002E0063006F006D0004030904050184
:100090000906A10175019508050719E029E7150072
:1000A00025018102950175088103950575010508F3
:1000B00019012905910295017503910395067508AB
:1000C000150025650507190029658100C0204E65CA
:1000D000772070617373776F7264207361766564E3
:1000E0002E005374617274696E672067656E657265
:1000F0006174696F6E2E2E2E000011241FBECFE595
:10010000D4E0DEBFCDBF10E0A0E6B0E0EAE6FAE062
:1001100002C005900D92A436B107D9F710E0A4E60D
:10012000B0E001C01D92A93CB107E1F721D49BC406
:1001300067CFCF93C62F20919E0024FF07C0209148
:100140009F0038E8232720939F0003C02AE52093CF
:100150009E00DC01E0EAF0E09C2F9E0F8D918193E0
:10016000892F8E1B1816D4F36C2F80EA90E052D1A1
:10017000CC5FC0939E00CF910895CF93DF936091A1
:10018000AF00635067FDC1C08091AC00CCE0D0E00F
:10019000C81BD109CD54DF4F8091AB008D3209F0DF
:1001A000A3C0683009F0AFC083EC809393008AE568
:1001B00080936000109264008881807619F0CE01EF
:1001C000EBD27FC09A8110929C008981811106C078
:1001D00010929D002CE930E082E06FC0853019F468
:1001E0009093B00067C0863009F04EC08B8181309B
:1001F00041F488E490E09093AE008093AD0082E1FA
:100200003FC0823041F486E290E09093AE0080934C
:10021000AD0082E235C08330F1F4911108C08AE864
:1002200090E09093AE008093AD0084E029C09130BF
:1002300041F48AE690E09093AE008093AD0080E2B6
:100240001FC09230E1F48AE590E09093AE00809375
:10025000AD0080E115C0813241F488E390E09093D5
:10026000AE008093AD0089E00BC0823241F48EE88D
:1002700090E09093AE008093AD008FE301C080E0EA
:1002800090E4909364001DC0883069F0893019F4BF
:100290009093B2000FC08A3049F08B3059F48BE450
:1002A00080939F0007C022EB30E002C02CE930E0D1
:1002B00081E003C02CE930E080E03093AE00209371
:1002C000AD008F3F39F4988197FD8E8190E890932F
:1002D000640007C09F81911104C09E81981708F4A3
:1002E000892F809361000FC08091640087FF0BC04D
:1002F000CE0133D38F3F21F48EE18093600003C0A1
:100300008111109261001092AF008091600084FF13
:1003100046C0809161008F3F09F441C0C82F8930E9
:1003200008F0C8E08C1B809361008091930098E8EE
:10033000892780939300CC2331F12091AD00309137
:10034000AE008091640086FF0BC0F901A4E9B0E023
:100350008C2F8A0F94919D9331968A13FBCF09C0FD
:10036000D901E4E9F0E08C2F8E0F9D9191938E13CB
:10037000FCCF8C2F815090E00196820F931F9093B9
:10038000AE008093AD006C2F84E990E043D0CC5F49
:10039000CC3019F08FEF80936100C093600084E14E
:1003A00090B3957031F48150D9F71092B00010924B
:1003B000AA00C1E08111C0E0809165008C1729F08E
:1003C000C11101C019D2C0936500DF91CF9108958A
:1003D00085B7826085BF8BB780648BBF8BE48093C9
:1003E0009F008AE580939E000895A82FB92F80E092
:1003F00090E041E050EA609530E009C02D918227FD
:100400009795879510F084279527305EC8F36F5F26
:10041000A8F30895EADF8D939D930895A6E08827B9
:100420009927AA9569F00197E1F38099FCCF809B09
:10043000FECF81E09927A0B3019611F0A570D9F7FE
:100440000895CF93CFB7CF93C395809BE9F7809B57
:1004500009C0809B07C0809B05C0809B03C0809B18
:1004600001C0A3C0DF93C091AC00DD27CD54DF4FA6
:10047000809B02C0DF91EBCF2F930F931F9300B3AC
:100480002FEF00FB20F94F933F9310B34FEF01275D
:1004900000FB21F93BE031C04E7F012F10B32160FA
:1004A00028C0102F4D7F2260000000B329C04B7F71
:1004B0002460012F000010B32BC010B3477F2860C9
:1004C0002AC04F7E00B320612CC04F7D10B3206244
:1004D0002FC04F7B00B3206432C0422700B3499342
:1004E0004FEF0000102710FB20F910B31570C9F171
:1004F000297F91F2012700FB21F900B3237F89F2C4
:10050000315058F1102710FB22F910B3277E79F2F1
:10051000012700FB23F92F7C81F200B3102710FB89
:1005200024F92F7971F200C010B3012700FB25F9DF
:100530002F7359F200C000B3102710FB26F92230A8
:1005400040F200C010B3012700FB27F9243028F641
:100550004F77206810B30000F9CF10E41ABF0027CE
:1005600019C03B503195C31BD04010E41ABF08811D
:10057000033CF9F00B34E9F02091AA001981110F26
:100580001213EDCF4A81441F093641F10D3211F0AB
:10059000013E29F70093B1003F914F911F910F91B8
:1005A0002F91DF91CAB7C6FD4FCFCF91CFBFCF916B
:1005B00018952091B100222379F31091AF001123F7
:1005C00069F534306AF13093AF002093AB0010919D
:1005D000AC003BE0311B3093AC0022C00091AF0077
:1005E0000130E4F40AE54F7049F43091600034FDC5
:1005F00019C000936000C3E9D0E018C030919E009C
:1006000034FD10C000939E00CFE9D0E00FC02795C5
:10061000A8F45150A9F4220F0000F9CF4AE503C015
:1006200042ED01C0432FC4E1D0E032E011B31560C8
:10063000909A11BB02B320E415E05F93012756E0C6
:1006400002BB279520F4515021F4220FF9CF012746
:1006500056E000003B5A02BBD0F2279528F45150D7
:1006600029F4220F0000F9CF012756E0279502BB9D
:1006700020F4515021F4220FF9CF012756E029919F
:10068000332302BB21F60A7F1091B000110FC6512F
:10069000D04002BB11F01093AA0010E41ABF016011
:1006A00011B31A7F402F4A7F5F9100C000C002BB88
:1006B00011BB42BB71CF80916600882359F09091A5
:1006C0006700903238F4E92FF0E0E859FF4F80815D
:1006D000811106C01092880010928A0080E008956F
:1006E00020916300222309F44CC09F5F9093670020
:1006F000982F90539A3040F410928800803311F074
:1007000083513AC087E238C0982F91569A3138F415
:10071000909162009270909388008D552DC0982F13
:1007200091549A3158F49091620091FF02C090E088
:1007300001C092E0909388008D531EC010928800F3
:1007400010928A008D3299F040F4803291F0E8F4F2
:10075000893089F08A30C9F412C08E3219F08F3591
:10076000A1F402C087E308C082E0809388008DE294
:1007700003C08CE201C08BE280938A0006C088E24D
:10078000FBCF1092880010928A0081E0211180E056
:100790008093630081E00895FC018081807680323F
:1007A00049F581818230D9F018F4813019F505C0FE
:1007B000893079F08A30F1F41AC088E890E090939B
:1007C000AE008093AD001092880010928A0088E0FD
:1007D000089586819781019769F48FEF089580E9E4
:1007E00090E09093AE008093AD0081E00895838106
:1007F0008093900080E00895AF92BF92CF92DF92F5
:10080000EF92FF920F931F93CF93DF93C12CA12CF4
:10081000CFE0D7E22FE4E22E29EFF22EC11002C082
:10082000D12C02C090E8D92E07E010E080E4B82E69
:1008300020E030E0213B364014F4DB0C01C0DB1833
:10084000D1BEECDD9C01223B86E0380724F0C901D3
:10085000815B964003C0C701821B930B8C179D07D9
:100860000CF002C0AD2CEC01B6940150110911F747
:10087000C39482E0C812D2CFA1BEDF91CF911F9165
:100880000F91FF90EF90DF90CF90BF90AF900895C1
:1008900082B78F738A3110F48F590895843310F41E
:1008A000895D08958E3310F4845008958E3311F4C9
:1008B0008DE208958FE50895CF9380919100C091C6
:1008C0009200811118C08C2F8F5F80939200C430EA
:1008D00008F441C010929200C1E0C093910047E13A
:1008E00050E062EE70E088E690E08ED010926700F3
:1008F000C093660030C0CCDFEC2FF0E0E859FF4F2A
:100900008083AC2FAF5FA0939200AA3020F1B0E0BB
:10091000A859BF4F8AE08C93CE5FC0939200EC2F12
:10092000F0E0E859FF4F108240E250E060E070E0F4
:1009300088E690E082D045E150E06DEC70E088E61A
:1009400090E062D01092670081E080936600109280
:10095000920010929100CF910895FC0180819091B6
:100960006200891719F080936200A6DF81E0089584
:1009700040E250E060E070E088E690E04ED01092F7
:10098000670081E0809366001092880010928900D1
:1009900010928A0010928B0010928C0010928D00A1
:1009A00010928E0010928F002EE088E190E00FB63A
:1009B000F894A89581BD0FBE21BD0ADD889A8AEF03
:1009C000A895EFE6F7E13197F1F700C000008150FC
:1009D000B9F7889883B7826083BF7894A895CDDBF8
:1009E00080919E0084FFFACF809166008130B1F73C
:1009F000809162008F3F91F35EDE8093660068E035
:100A000088E890E096DBEACFFB01DC0102C00590AC
:100A10000D9241505040D8F70895DC01CB01FC0104
:100A2000E199FECF06C0FFBBEEBBE09A31960DB256
:100A30000D9241505040B8F70895DC01CB0102C03F
:100A40002D9105D041505040D8F70895262FE199B7
:100A5000FECF9FBB8EBB2DBB0FB6F894E29AE19AF6
:0A0A60000FBE01960895F894FFCF31
:040A6A005AFFFF012F
:00000001FF
