:1018000042C076C05BC05AC059C058C057C056C00D
:1018100055C054C053C052C051C050C04FC04EC03C
:101820004DC04CC04BC04AC049C048C047C046C06C
:1018300045C044C0090212000101008032090400C1
:1018400000000000000012011001FF000008C01697
:10185000DC050201010200010E03550053004200A5
:101860006100730070001C037700770077002E0082
:10187000660069007300630068006C002E0064005D
:1018800065000403090411241FBECFEFD4E0DEBFBE
:10189000CDBF11E0A0E0B1E0E0EBFFE102C00590B8
:1018A0000D92A630B107D9F711E0A6E0B1E001C072
:1018B0001D92AD33B107E1F755D178C3A1CFA82F61
:1018C000B92F80E090E041E050EA609530E009C037
:1018D0002D9182279795879510F084279527305E64
:1018E000C8F36F5FA8F30895EADF8D939D93089581
:1018F000CF93CFB7CF93C3954C9BE9F74C9B09C0CF
:101900004C9B07C04C9B05C04C9B03C04C9B01C02B
:10191000A1C0DF93C0912001DD27C95DDE4F4C9B44
:1019200002C0DF91EBCF2F930F931F9309B12FEFDD
:1019300004FB20F94F933F9319B14FEF012704FBAC
:1019400021F93BE031C04E7F012F19B1216028C041
:10195000102F4D7F2260000009B129C04B7F246009
:10196000012F000019B12BC019B1477F28602AC090
:101970004F7E09B120612CC04F7D19B120622FC06C
:101980004F7B09B1206432C0422709B149934FEF20
:101990000000102714FB20F919B11471C9F1297F37
:1019A00091F2012704FB21F909B1237F89F231501B
:1019B00058F1102714FB22F919B1277E79F201277B
:1019C00004FB23F92F7C81F209B1102714FB24F9C1
:1019D0002F7971F200C019B1012704FB25F92F738B
:1019E00059F200C009B1102714FB26F9223040F249
:1019F00000C019B1012704FB27F9243028F64F77DE
:101A0000206819B10000F9CF11E01CBB002717C0F6
:101A10003B503195C31BD04011E01CBB0881033CF7
:101A2000E9F00B34D9F020911E011981110F121326
:101A3000EDCF093641F10D3211F0013E39F7009337
:101A400025013F914F911F910F912F91DF91CCB3C1
:101A5000C0FD51CFCF91CFBFCF91189520912501D7
:101A6000222379F310912301112311F5343012F15F
:101A70003093230120931F01109120013BE0311B83
:101A80003093200117C00091230101308CF40AE546
:101A90003091000134FD10C000930001C3E1D1E09A
:101AA0000FC02795A8F45150A9F4220F0000F9CFD8
:101AB0004AE503C042ED01C0432FC4E1D0E032E06B
:101AC0001AB114615C9A1AB90BB120E414E15F9366
:101AD000012756E00BB9279520F4515021F4220F2D
:101AE000F9CF012756E000003B5A0BB9D0F22795F9
:101AF00028F4515029F4220F0000F9CF012756E0B5
:101B000027950BB920F4515021F4220FF9CF01276A
:101B100056E0299133230BB921F60B7E1091240155
:101B2000110FC651D0400BB911F010931E0111E0F6
:101B30001CBB00611AB11B7E402F4B7E5F9100C021
:101B400000C00BB91AB94BB97CCF1BB8F8941DBAB9
:101B50001092690081E085BF15BEE0911101F091FE
:101B60001201099588E10FB6F894809360001092F5
:101B700060000FBE5F9A04B601FE01C214BE81E090
:101B800085BF82E085BF4F99FAC18091690082606C
:101B900080936900E89A549A80E007C0A895E7EB23
:101BA000FBE03197F1F700C000008150B9F754987D
:101BB0007894DD24CC2410912301135017FD5BC1D0
:101BC000209120018CE090E0821B9109EC01C95D1D
:101BD000DE4F20911F012D3209F0CBC0183009F0E3
:101BE00048C123EC209313012AE5209300011092B1
:101BF00007014881242F20763981222309F446C029
:101C000088E091E090932201809321013330C9F460
:101C10009B818C812A81203339F48370E82FF0E096
:101C2000EE5FFE4F808109C0203A11F4A9D105C0B2
:101C3000203C11F46D81ACD180E080930B0124E055
:101C40008EC03530F9F0832F84508630A8F48A8115
:101C50009B8190930D0180930C013930A9F02E8166
:101C600020930E018D81827080930F0130931001BB
:101C700047FD71C02FEF6FC0323031F481E08093A7
:101C8000060102C021E06BC020E069C02A811092E9
:101C90001C01332331F410921D018CE191E022E00C
:101CA00055C0353019F42093240144C03630E1F595
:101CB000FC01E75DFE4F2081865D9E4FFC01808127
:101CC000813019F486E498E104C0823041F484E361
:101CD00098E1909322018093210122E121C0833079
:101CE000F1F4222341F482E898E190932201809359
:101CF000210124E015C0213041F486E698E190935B
:101D00002201809321012CE10BC0223041F488E5AF
:101D100098E190932201809321012EE001C020E000
:101D200080E4809307011BC0383069F0393029F412
:101D3000209326018CE191E004C08CE191E03A30DF
:101D400021F020E003C086E291E021E0909322019F
:101D50008093210104C080E88093070107C08F8130
:101D6000882321F48E81821708F4282F2093010103
:101D700080C08091070187FF7CC080910E01811790
:101D800008F4182F811B80930E0101E0811100E0FF
:101D900080911001873008F464C07E010FC08091EB
:101DA0000C0190910D019C012F5F3F4F30930D016D
:101DB00020930C01F70161917F01EAD08E2D8C1BDD
:101DC000811768F352C080910C0190910D018F73BF
:101DD0009070009769F4F894E0910C01F0910D0176
:101DE00083E080935700E895789407B600FCFDCF18
:101DF0002E5FF894E0910C01F0910D018991999179
:101E000031E00C0130935700E895112478948091CB
:101E10000C0190910D01029690930D0180930C019D
:101E20008F739070009741F00023E1F02117D0F0FC
:101E300080910F018823B1F0F894E0910C01F091AA
:101E40000D01329785E080935700E895789407B6A6
:101E500000FCFDCFF89481E180935700E8957894D9
:101E600001C020E0211708F4AECF002311F010923A
:101E70000101109223018091000184FF6CC08091C8
:101E800001018F3F09F467C0182F893008F018E06E
:101E9000811B809301018091130198E88927809329
:101EA0001301112309F446C08091070187FF26C062
:101EB00080910E01811708F4182F811B80930E0169
:101EC00000E0C4E1D1E017C080911001E0900C0166
:101ED000F0900D01873018F0C70152D002C0F70111
:101EE0008491888321960894E11CF11CF0920D01E5
:101EF000E0920C010F5F011739F71AC0E091210140
:101F0000F091220186FF09C0812FA4E1B1E09491F4
:101F10009D9331968150D9F707C0812FA4E1B1E09C
:101F200091919D938150E1F7F0932201E09321017B
:101F3000193058F484E191E0612FD6DC1C5F1C302D
:101F400041F08FEF8093010104C08FEF8093010176
:101F50001EE11093000184E199B1947131F4815034
:101F6000D9F71092240110921E0180910601882356
:101F700021F0CA9411F4DA9411F04F9B1CCEE5DDE8
:101F8000F999FECF92BD81BDF89A992780B5089541
:101F9000262FF999FECF1FBA92BD81BD20BD0FB685
:101FA000F894FA9AF99A0FBE01960895F894FFCF23
:061FB0005AFF1E930A0017
:0400000300001800E1
:00000001FF
