:101800003BC06FC054C053C052C051C050C04FC045
:101810004EC04DC04CC04BC04AC049C048C047C074
:1018200046C045C044C009021200010100803209CF
:10183000040000000000000012011001FF00000879
:10184000C016DC050201010200010E035500530021
:1018500042006100730070001C037700770077007E
:101860002E00660069007300630068006C002E00A3
:10187000640065000403090411241FBECFE5D4E011
:10188000DEBFCDBF10E0A0E6B0E0E8E6FFE102C0B9
:1018900005900D92A636B107D9F710E0A6E6B0E0A4
:1018A00001C01D92AD39B107E1F73BD15BC3A8CFB1
:1018B000A82FB92F80E090E041E050EA609530E039
:1018C00009C02D9182279795879510F08427952739
:1018D000305EC8F36F5FA8F30895EADF8D939D93A0
:1018E0000895CF93CFB7CF93DF93C395849BE9F748
:1018F000849B0BC0849B09C0849B07C0849B05C04C
:10190000849B03C0849B01C089C06F93C0918000F9
:10191000DD27C957DF4F2F9365E5849B03C02F91C7
:101920006F91E6CF0F931F934F9320E040E15F93B9
:1019300000B3047104FB27F93F9350E03BE039C04A
:10194000147140642F77012F5F5F1EC0406810B391
:1019500014712F7752501FC0406400B32F77047169
:10196000D1F15F5F00C023C0406210B32F771471C4
:1019700091F15F5F00C025C004711027515012F42F
:101980005D5F0000115027952C3F10B3C8F614710D
:101990000127015027952C3FC8F64227499300B3F1
:1019A000047110274F73115027952C3FA8F64695C8
:1019B000469510B3147179F00127015027952C3FFB
:1019C00098F66B5A60F3315000B3B0F600C010E4E3
:1019D0001ABF002717C03B503195C31BD04010E4FD
:1019E0001ABF0881033CF9F00B34E9F020917E0026
:1019F0001981110F1213EDCF093651F10D3211F08B
:101A0000013E39F7009385003F915F914F911F91FF
:101A10000F912F916F91CAB7C6FD67CFDF91CF911C
:101A2000CFBFCF91189520918500222369F31091A3
:101A30008300112339F534303AF130938300209339
:101A40007F00109180003BE0311B309380001CC070
:101A5000009183000130B4F40AE53091600034FD58
:101A600014C000936000C3E7D0E013C0052710E066
:101A700000C0000002BB1AC0052710E0221F1DC0D5
:101A800010E021C04AE502C032ED432FC4E1D0E0AE
:101A900032E011B31461949A02B311BB54E120E80F
:101AA00065E320FF052702BB279517951C3FF0F63D
:101AB0006695B8F7B1F720FF052702BB2795179564
:101AC0001C3FD0F62795179517FF052700001C3FF0
:101AD00002BBB0F629913A9519F70B7E109184005C
:101AE000110FC651D04002BB11F010937E0010E4DC
:101AF0001ABF006111B31B7E402F4B7E54E05A95F4
:101B0000F1F702BB11BB42BB7FCF12BAF8941BBEE8
:101B100015BE81E08BBF1BBEE0917100F091720099
:101B2000099588E10FB6F89481BD11BC0FBE979A54
:101B300004B601FE01C214BE81E08BBF82E08BBF00
:101B40008799FAC185B7826085BF8BB780648BBFE8
:101B50008C9A80E007C0A895EFE9FFE03197F1F794
:101B600000C000008150B9F78C987894DD24CC2413
:101B700010918300135017FD5BC1209180008CE011
:101B800090E0821B9109EC01C957DF4F20917F0043
:101B90002D3209F0CBC0183009F048C123EC209356
:101BA00073002AE520936000109267004881242F7B
:101BB00020763981222309F446C088E690E090938C
:101BC0008200809381003330C9F49B818C812A810B
:101BD000203339F48370E82FF0E0EE59FF4F808115
:101BE00009C0203A11F4A9D105C0203C11F46D813F
:101BF000ACD180E080936B0024E08EC03530F9F0EA
:101C0000832F84508630A8F48A819B8190936D0045
:101C100080936C003930A9F02E8120936E008D8165
:101C2000827080936F003093700047FD71C02FEF7A
:101C30006FC0323031F481E08093660002C021E051
:101C40006BC020E069C02A8110927C00332331F4FC
:101C500010927D008CE790E022E055C0353019F4F9
:101C60002093840044C03630E1F5FC01E757FF4F74
:101C7000208186579F4FFC018081813019F488E3D1
:101C800098E104C0823041F486E298E190938200AA
:101C90008093810022E121C08330F1F4222341F4BA
:101CA00084E798E1909382008093810024E015C03E
:101CB000213041F488E598E190938200809381007F
:101CC0002CE10BC0223041F48AE498E19093820029
:101CD000809381002EE001C020E080E480936700C3
:101CE0001BC0383069F0393029F4209386008CE726
:101CF00090E004C08CE790E03A3021F020E003C08F
:101D000086E890E021E0909382008093810004C0F7
:101D100080E88093670007C08F81882321F48E813B
:101D2000821708F4282F2093610080C080916700FB
:101D300087FF7CC080916E00811708F4182F811BEB
:101D400080936E0001E0811100E080917000873087
:101D500008F464C07E010FC080916C0090916D000A
:101D60009C012F5F3F4F30936D0020936C00F70173
:101D700061917F01EAD08E2D8C1B811768F352C0D0
:101D800080916C0090916D008F739070009769F452
:101D9000F894E0916C00F0916D0083E0809357001F
:101DA000E895789407B600FCFDCF2E5FF894E0919B
:101DB0006C00F0916D008991999131E00C013093A4
:101DC0005700E8951124789480916C0090916D00F3
:101DD000029690936D0080936C008F7390700097C3
:101DE00041F00023E1F02117D0F080916F008823AB
:101DF000B1F0F894E0916C00F0916D00329785E0BD
:101E000080935700E895789407B600FCFDCFF894CE
:101E100081E180935700E895789401C020E0211774
:101E200008F4AECF002311F01092610010928300ED
:101E30008091600084FF6CC0809161008F3F09F445
:101E400067C0182F893008F018E0811B809361006B
:101E50008091730098E8892780937300112309F417
:101E600046C08091670087FF26C080916E00811771
:101E700008F4182F811B80936E0000E0C4E7D0E0C7
:101E800017C080917000E0906C00F0906D0087307A
:101E900018F0C70152D002C0F701849188832196BF
:101EA0000894E11CF11CF0926D00E0926C000F5F51
:101EB000011739F71AC0E0918100F091820086FF86
:101EC00009C0812FA4E7B0E094919D933196815091
:101ED000D9F707C0812FA4E7B0E091919D9381507D
:101EE000E1F7F0938200E0938100193058F484E721
:101EF00090E0612FF2DC1C5F1C3041F08FEF80938B
:101F0000610004C08FEF809361001EE110936000B8
:101F100084E190B3947131F48150D9F71092840028
:101F200010927E0080916600882321F0CA9411F4FB
:101F3000DA9411F0879B1CCEE8DDE199FECF9FBBC0
:101F40008EBBE09A99278DB30895262FE199FECF95
:101F50009FBB8EBB2DBB0FB6F894E29AE19A0FBEE1
:081F600001960895F894FFCFEB
:061F68005AFF1E93070062
:0400000300001800E1
:00000001FF
