:1018000042C076C05BC05AC059C058C057C056C00D
:1018100055C054C053C052C051C050C04FC04EC03C
:101820004DC04CC04BC04AC049C048C047C046C06C
:1018300045C044C0090212000101008032090400C1
:1018400000000000000012011001FF000008C01697
:10185000DC050201010200010E03550053004200A5
:101860006100730070001C037700770077002E0082
:10187000660069007300630068006C002E0064005D
:1018800065000403090411241FBECFEFD4E0DEBFBE
:10189000CDBF11E0A0E0B1E0ECE6FFE102C00590B1
:1018A0000D92A630B107D9F711E0A6E0B1E001C072
:1018B0001D92AD33B107E1F733D156C3A1CFA82FA5
:1018C000B92F80E090E041E050EA609530E009C037
:1018D0002D9182279795879510F084279527305E64
:1018E000C8F36F5FA8F30895EADF8D939D93089581
:1018F000CF93CFB7CF93DF93C3954C9BE9F74C9B26
:1019000011C04C9B0FC04C9B0DC04C9B0BC04C9B03
:1019100009C04C9B07C04C9B05C04C9B03C04C9B13
:1019200001C081C06F93C0912001DD27C95DDE4FEA
:101930002F9320E400C065E04C9B03C02F916F9172
:10194000DECF0F931F934F9345E55F9355E53F938C
:101950003BE014E009B104712EC06A95C9F0315022
:10196000D8F109B1047101130BC00894279529938C
:1019700020E4555500F46A9569F701E069B10BC0A0
:10198000102F66E02695299320E4555518F3E2CFF1
:101990000FEF69B10000162F455500F0404066E09A
:1019A00014710030E2F221F0000009B1047103C0AB
:1019B00009B10471A9F0011309C00894279568F2D0
:1019C00000C06A95A9F700E069B1E5CF102F66E085
:1019D000269528F20000ECCF11E01CBB002717C0B1
:1019E0003B503195C31BD04011E01CBB0881033C28
:1019F000F9F00B34E9F020911E011981110F121337
:101A0000EDCF093651F10D3211F0013E39F7009357
:101A100025013F915F914F911F910F912F916F91F0
:101A2000CCB3C0FD69CFDF91CF91CFBFCF911895D7
:101A300020912501222369F310912301112329F517
:101A400034302AF13093230120931F01109120019B
:101A50003BE0311B309320011AC00091230101307B
:101A6000A4F40AE53091000134FD12C00093000196
:101A7000C3E1D1E011C0052710E000C00BB919C0C7
:101A8000052710E0221F00C01DC04AE502C032ED4C
:101A9000432FC4E1D0E032E01AB114615C9A0BB17B
:101AA0001AB954E120E869E420FF05270BB927950E
:101AB000179500C000001C3FF0F66695A8F7A1F747
:101AC00020FF05270BB92795179500001C3FC0F68E
:101AD00029913A9541F70B7E10912401110F0BB912
:101AE000C651D04011F010931E0111E01CBB0061E3
:101AF0001AB11B7E402F4B7E55E05A95F1F70BB97A
:101B00001AB94BB986CF1BB8F8941DBA1092690068
:101B100081E085BF15BEE0911101F0911201099598
:101B200088E10FB6F89480936000109260000FBEB9
:101B30005F9A04B601FE01C214BE81E085BF82E057
:101B400085BF4F99FAC180916900826080936900D6
:101B5000E89A549A80E007C0A895E7E8F3E1319746
:101B6000F1F700C000008150B9F754987894DD2453
:101B7000CC2410912301135017FD5BC1209120014B
:101B80008CE090E0821B9109EC01C95DDE4F209151
:101B90001F012D3209F0CBC0183009F048C123ECE9
:101BA000209313012AE52093000110920701488138
:101BB000242F20763981222309F446C088E091E061
:101BC00090932201809321013330C9F49B818C8151
:101BD0002A81203339F48370E82FF0E0EE5FFE4F66
:101BE000808109C0203A11F4A9D105C0203C11F42C
:101BF0006D81ACD180E080930B0124E08EC0353044
:101C0000F9F0832F84508630A8F48A819B819093C9
:101C10000D0180930C013930A9F02E8120930E0123
:101C20008D81827080930F013093100147FD71C048
:101C30002FEF6FC0323031F481E08093060102C093
:101C400021E06BC020E069C02A8110921C0133237F
:101C500031F410921D018CE191E022E055C0353045
:101C600019F42093240144C03630E1F5FC01E75D0E
:101C7000FE4F2081865D9E4FFC018081813019F4EA
:101C800086E498E104C0823041F484E398E19093C3
:101C900022018093210122E121C08330F1F422232B
:101CA00041F482E898E1909322018093210124E09D
:101CB00015C0213041F486E698E19093220180938B
:101CC00021012CE10BC0223041F488E598E190938A
:101CD0002201809321012EE001C020E080E4809366
:101CE00007011BC0383069F0393029F420932601F0
:101CF0008CE191E004C08CE191E03A3021F020E0E9
:101D000003C086E291E021E09093220180932101BB
:101D100004C080E88093070107C08F81882321F4E5
:101D20008E81821708F4282F2093010180C08091B2
:101D3000070187FF7CC080910E01811708F4182FDE
:101D4000811B80930E0101E0811100E08091100160
:101D5000873008F464C07E010FC080910C0190911F
:101D60000D019C012F5F3F4F30930D0120930C011B
:101D7000F70161917F01EAD08E2D8C1B811768F3EA
:101D800052C080910C0190910D018F73907000975B
:101D900069F4F894E0910C01F0910D0183E08093D7
:101DA0005700E895789407B600FCFDCF2E5FF894B5
:101DB000E0910C01F0910D018991999131E00C01B4
:101DC00030935700E8951124789480910C019091FC
:101DD0000D01029690930D0180930C018F7390700A
:101DE000009741F00023E1F02117D0F080910F011E
:101DF0008823B1F0F894E0910C01F0910D01329735
:101E000085E080935700E895789407B600FCFDCFF5
:101E1000F89481E180935700E895789401C020E020
:101E2000211708F4AECF002311F010920101109297
:101E300023018091000184FF6CC0809101018F3FDC
:101E400009F467C0182F893008F018E0811B8093CF
:101E500001018091130198E88927809313011123D0
:101E600009F446C08091070187FF26C080910E01CA
:101E7000811708F4182F811B80930E0100E0C4E144
:101E8000D1E017C080911001E0900C01F0900D019D
:101E9000873018F0C70152D002C0F70184918883BF
:101EA00021960894E11CF11CF0920D01E0920C01C6
:101EB0000F5F011739F71AC0E0912101F09122015B
:101EC00086FF09C0812FA4E1B1E094919D933196E2
:101ED0008150D9F707C0812FA4E1B1E091919D9382
:101EE0008150E1F7F0932201E0932101193058F479
:101EF00084E191E0612FF8DC1C5F1C3041F08FEF32
:101F00008093010104C08FEF809301011EE11093C3
:101F1000000184E199B1947131F48150D9F71092A4
:101F2000240110921E0180910601882321F0CA9499
:101F300011F4DA9411F04F9B1CCEE5DDF999FECF38
:101F400092BD81BDF89A992780B50895262FF999F9
:101F5000FECF1FBA92BD81BD20BD0FB6F894FA9A8C
:0C1F6000F99A0FBE01960895F894FFCF87
:061F6C005AFF1E930A005B
:0400000300001800E1
:00000001FF
