:1018000042C076C05BC05AC059C058C057C056C00D
:1018100055C054C053C052C051C050C04FC04EC03C
:101820004DC04CC04BC04AC049C048C047C046C06C
:1018300045C044C0090212000101008032090400C1
:1018400000000000000012011001FF000008C01697
:10185000DC050201010200010E03550053004200A5
:101860006100730070001C037700770077002E0082
:10187000660069007300630068006C002E0064005D
:1018800065000403090411241FBECFEFD4E0DEBFBE
:10189000CDBF11E0A0E0B1E0EAE9FFE102C00590B0
:1018A0000D92A630B107D9F711E0A6E0B1E001C072
:1018B0001D92AC33B107E1F771D16DC3A1CFA82F51
:1018C000B92F80E090E041E050EA609530E009C037
:1018D0002D9182279795879510F084279527305E64
:1018E000C8F36F5FA8F30895EADF8D939D93089581
:1018F000CF93CFB7CF93C3954C9BE9F74C9B0BC0CD
:101900004C9B09C04C9B07C04C9B05C04C9B03C023
:101910004C9B01C0C0C0C0911F01DF93DD27CA5D91
:10192000DE4F2F932FEF4C9B03C02F91DF91E6CF1B
:101930000F931F934F936F9309B104FB20F93F93CB
:101940003BE05F931EC04E7F012F19B11471E1F08F
:10195000216000001DC0102F4D7F2260000009B1E2
:10196000047191F01DC04B7F2460012F000019B15C
:10197000147151F01EC019B1147131F0477F286005
:101980001BC019B1147109F462C04FEF297FD9F25D
:10199000012704FB21F909B10471B1F3237FD9F2C6
:1019A000102714FB22F900C019B1147169F3277EC6
:1019B000D1F2012704FB23F92F7CE9F209B104716C
:1019C00019F3102714FB24F92F7929F100C019B15C
:1019D0001471E9F1012704FB25F92F7311F100C0FF
:1019E00009B10471A1F1102714FB26F92230F8F097
:1019F00000C019B1147159F1012704FB27F92430F3
:101A0000E0F04227000009B14993102714FB20F9A8
:101A10003150C8F0B6CF4F7E09B10471C1F02061DA
:101A2000D3CF206219B1147191F04F7DD6CF4F7B87
:101A300009B1047161F02064D9CF4F7719B11471E5
:101A400031F02068DCCF11E01CBB002717C03B50F1
:101A50003195C31BD04011E01CBB0881033CF9F059
:101A60000B34E9F020911D011981110F1213EDCFF4
:101A7000093651F10D3211F0013E39F7009324017E
:101A80005F913F916F914F911F910F912F91DF9136
:101A9000CCB3C0FD30CFCF91CFBFCF91189520915F
:101AA0002401222369F310912201112331F53430EE
:101AB00032F13093220120931E0110911F013BE06F
:101AC000311B30931F011BC0009122010130ACF487
:101AD0000AE53091000134FD13C000930001C2E11A
:101AE000D1E012C005271127000019C005271127D2
:101AF0001FC005271127000024C04AE502C032EDAF
:101B0000432FC4E1D0E032E01AB114615C9A0BB10A
:101B10001AB954E120E866E020FF052727950BB9A4
:101B200017951C3FF8F66A95B9F720FF052727950A
:101B300000000BB917951C3FC8F620FF0527279515
:101B4000179566E01C3F0BB9A0F629913A9521F74D
:101B50000B7E10912301110F0BB9C651D04011F02B
:101B600010931D0111E01CBB00611AB11B7E402FB8
:101B70004B7E53E05A95F1F700C00BB91AB94BB937
:101B80007FCF1BB8F8941DBA1092690081E085BF21
:101B900015BEE0911001F0911101099588E10FB691
:101BA000F89480936000109260000FBE5F9A04B6B4
:101BB00001FEDAC114BE81E085BF82E085BF4F9986
:101BC000D3C180916900826080936900E89A549A39
:101BD00080E007C0A895E5EAFEE03197F1F700C084
:101BE00000008150B9F75498789410E000E02091FB
:101BF0002201235027FD3EC130911F018CE090E06F
:101C0000831B9109EC01CA5DDE4F30911E013D320C
:101C100009F0C9C0283009F02BC123EC2093120130
:101C20002AE520930001109207013881432F407666
:101C30002981442309F444C088E091E09093210174
:101C4000809320012330C9F49B818C812A81203329
:101C500039F48370E82FF0E0EE5FFE4F808109C019
:101C6000203A11F482D105C0203C11F46D8185D158
:101C700080E080930B0124E08CC02530E9F0822FB6
:101C80008450863098F48A819B8190930D018093D3
:101C90000C01293099F02E8120930E018D818270E4
:101CA00080930F0137FD71C02FEF6FC0223031F4E8
:101CB00081E08093060102C021E06BC020E069C092
:101CC0003A8110921B01222331F410921C018BE106
:101CD00091E022E055C0253019F43093230144C02F
:101CE0002630E1F5FC01E85DFE4F2081875D9E4FC7
:101CF000FC018081813019F486E498E104C08230CF
:101D000041F484E398E1909321018093200122E142
:101D100021C08330F1F4222341F482E898E19093CA
:101D200021018093200124E015C0213041F486E692
:101D300098E190932101809320012CE10BC0223087
:101D400041F488E598E190932101809320012EE0F1
:101D500001C020E080E4809307011BC0283069F0B7
:101D6000293029F4309325018BE191E004C08BE107
:101D700091E02A3021F020E003C085E291E021E0EB
:101D8000909321018093200104C080E88093070193
:101D900007C08F81882321F48E81821708F4282FB1
:101DA0002093010165C08091070187FF61C0809188
:101DB0000E01821708F4282F821B80930E0141E048
:101DC000811140E030E04DC080910C0190910D01F7
:101DD0008F739070009769F4F894E0910C01F09182
:101DE0000D0183E080935700E895789407B600FCD6
:101DF000FDCF3E5FF894E0910C01F0910D018991C7
:101E0000999151E00C0150935700E8951124789472
:101E100080910C0190910D01029690930D01809399
:101E20000C018F739070009741F04423D1F032176A
:101E3000C0F080910F018823A1F0F894E0910C018B
:101E4000F0910D01329785E080935700E8957894E2
:101E500007B600FCFDCFF89481E180935700E89528
:101E60007894321708F4B0CF442311F01092010196
:101E7000109222018091000184FF62C080910101D3
:101E80008F3F09F45DC0C82F893008F0C8E08C1B73
:101E9000809301018091120198E8892780931201B3
:101EA000CC2309F43CC08091070187FF1CC08091BE
:101EB0000E018C1708F4C82F8C1B80930E018091A3
:101EC0000C01E82FF0910D01A3E1B1E003C0949162
:101ED0009D9331969E2F981B9C17C8F3F0930D018C
:101EE000E0930C011AC0E0912001F091210186FFDE
:101EF00009C08C2FA3E1B1E094919D93319681505C
:101F0000D9F707C08C2FA3E1B1E091919D93815047
:101F1000E1F7F0932101E0932001C93058F483E107
:101F200091E06C2FE1DCCC5FCC3041F08FEF8093FF
:101F3000010104C08FEF80930101CEE1C093000145
:101F400084E199B1947131F48150D9F71092230151
:101F500010921D0180910601882321F0015011F497
:101F6000115011F04F9B43CE0CDEF999FECF92BD7C
:101F700081BDF89A992780B50895262FF999FECF4B
:101F80001FBA92BD81BD20BD0FB6F894FA9AF99A96
:0A1F90000FBE01960895F894FFCFEC
:061F9A005AFF1E930A002D
:0400000300001800E1
:00000001FF
