:101800003BC06FC054C053C052C051C050C04FC045
:101810004EC04DC04CC04BC04AC049C048C047C074
:1018200046C045C044C009021200010100803209CF
:10183000040000000000000012011001FF00000879
:10184000C016DC050201010200010E035500530021
:1018500042006100730070001C037700770077007E
:101860002E00660069007300630068006C002E00A3
:10187000640065000403090411241FBECFE5D4E011
:10188000DEBFCDBF10E0A0E6B0E0E4E8FFE102C0BB
:1018900005900D92A636B107D9F710E0A6E6B0E0A4
:1018A00001C01D92AC39B107E1F770D169C3A8CF6F
:1018B000A82FB92F80E090E041E050EA609530E039
:1018C00009C02D9182279795879510F08427952739
:1018D000305EC8F36F5FA8F30895EADF8D939D93A0
:1018E0000895CF93CFB7CF93C395849BE9F7849B9B
:1018F0000BC0849B09C0849B07C0849B05C0849B4C
:1019000003C0849B01C0C0C0C0917F00DF93DD276E
:10191000CA57DF4F2F932FEF849B03C02F91DF9186
:10192000E6CF0F931F934F936F9300B304FB20F9FF
:101930003F933BE05F931EC04E7F012F10B31471A5
:10194000E1F0216000001DC0102F4D7F22600000DB
:1019500000B3047191F01DC04B7F2460012F000083
:1019600010B3147151F01EC010B3147131F0477FE1
:1019700028601BC010B3147109F462C04FEF297FB7
:10198000D9F2012704FB21F900B30471B1F3237FDD
:10199000D9F2102714FB22F900C010B3147169F3B7
:1019A000277ED1F2012704FB23F92F7CE9F200B353
:1019B000047119F3102714FB24F92F7929F100C0C1
:1019C00010B31471E9F1012704FB25F92F7311F10C
:1019D00000C000B30471A1F1102714FB26F92230D6
:1019E000F8F000C010B3147159F1012704FB27F976
:1019F0002430E0F04227000000B34993102714FB85
:101A000020F93150C8F0B6CF4F7E00B30471C1F059
:101A10002061D3CF206210B3147191F04F7DD6CFE7
:101A20004F7B00B3047161F02064D9CF4F7710B3BE
:101A3000147131F02068DCCF10E41ABF002717C002
:101A40003B503195C31BD04010E41ABF0881033CC2
:101A5000F9F00B34E9F020917D001981110F121378
:101A6000EDCF093651F10D3211F0013E39F70093F7
:101A700084005F913F916F914F911F910F912F9132
:101A8000DF91CAB7C6FD30CFCF91CFBFCF911895A8
:101A900020918400222369F310918200112331F5F3
:101AA000343032F13093820020937E0010917F0019
:101AB0003BE0311B30937F001BC00091820001305E
:101AC000ACF40AE53091600034FD13C0009360006F
:101AD000C2E7D0E012C005271127000019C0052772
:101AE00011271FC005271127000024C04AE502C0A6
:101AF00032ED432FC4E1D0E032E011B31461949A87
:101B000002B311BB54E120E866E020FF05272795CA
:101B100002BB17951C3FF8F66A95B9F720FF052719
:101B20002795000002BB17951C3FC8F620FF05272C
:101B30002795179566E01C3F02BBA0F629913A95C0
:101B400021F70B7E10918300110F02BBC651D040CC
:101B500011F010937D0010E41ABF006111B31B7ED9
:101B6000402F4B7E53E05A95F1F700C002BB11BBEA
:101B700042BB7FCF12BAF8941BBE15BE81E08BBF6B
:101B80001BBEE0917000F0917100099588E10FB6DD
:101B9000F89481BD11BC0FBE979A04B601FEDAC15C
:101BA00014BE81E08BBF82E08BBF8799D3C185B71C
:101BB000826085BF8BB780648BBF8C9A80E007C042
:101BC000A895E5EAFEE03197F1F700C000008150EA
:101BD000B9F78C98789410E000E0209182002350AF
:101BE00027FD3EC130917F008CE090E0831B91097E
:101BF000EC01CA57DF4F30917E003D3209F0C9C079
:101C0000283009F02BC123EC209372002AE52093A1
:101C10006000109267003881432F40762981442369
:101C200009F444C088E690E090938100809380009E
:101C30002330C9F49B818C812A81203339F483704D
:101C4000E82FF0E0EE59FF4F808109C0203A11F4EF
:101C500082D105C0203C11F46D8185D180E0809354
:101C60006B0024E08CC02530E9F0822F8450863050
:101C700098F48A819B8190936D0080936C00293049
:101C800099F02E8120936E008D81827080936F0079
:101C900037FD71C02FEF6FC0223031F481E08093A7
:101CA000660002C021E06BC020E069C03A8110925A
:101CB0007B00222331F410927C008BE790E022E03D
:101CC00055C0253019F43093830044C02630E1F527
:101CD000FC01E857FF4F208187579F4FFC0180810F
:101CE000813019F488E398E104C0823041F486E23F
:101CF00098E1909381008093800022E121C083309D
:101D0000F1F4222341F484E798E1909381008093D9
:101D1000800024E015C0213041F488E598E19093DB
:101D20008100809380002CE10BC0223041F48AE4D2
:101D300098E190938100809380002EE001C020E024
:101D400080E4809367001BC0283069F0293029F4B3
:101D5000309385008BE790E004C08BE790E02A3059
:101D600021F020E003C085E890E021E0909381001D
:101D70008093800004C080E88093670007C08F8153
:101D8000882321F48E81821708F4282F2093610084
:101D900065C08091670087FF61C080916E008217E7
:101DA00008F4282F821B80936E0041E0811140E0EF
:101DB00030E04DC080916C0090916D008F739070F9
:101DC000009769F4F894E0916C00F0916D0083E065
:101DD00080935700E895789407B600FCFDCF3E5FEE
:101DE000F894E0916C00F0916D008991999151E027
:101DF0000C0150935700E8951124789480916C0061
:101E000090916D00029690936D0080936C008F739B
:101E10009070009741F04423D1F03217C0F08091C8
:101E20006F008823A1F0F894E0916C00F0916D00B0
:101E3000329785E080935700E895789407B600FCC8
:101E4000FDCFF89481E180935700E895789432179C
:101E500008F4B0CF442311F0109261001092820078
:101E60008091600084FF62C0809161008F3F09F41F
:101E70005DC0C82F893008F0C8E08C1B80936100DA
:101E80008091720098E8892780937200CC2309F42E
:101E90003CC08091670087FF1CC080916E008C174A
:101EA00008F4C82F8C1B80936E0080916C00E82F83
:101EB000F0916D00A3E7B0E003C094919D9331963B
:101EC0009E2F981B9C17C8F3F0936D00E0936C0055
:101ED0001AC0E0918000F091810086FF09C08C2F2C
:101EE000A3E7B0E094919D9331968150D9F707C054
:101EF0008C2FA3E7B0E091919D938150E1F7F0938F
:101F00008100E0938000C93058F483E790E06C2FA3
:101F1000E4DCCC5FCC3041F08FEF8093610004C0F3
:101F20008FEF80936100CEE1C093600084E190B3B5
:101F3000947131F48150D9F71092830010927D0092
:101F400080916600882321F0015011F4115011F0A6
:101F5000879B43CE0FDEE199FECF9FBB8EBBE09AFD
:101F600099278DB30895262FE199FECF9FBB8EBB95
:101F70002DBB0FB6F894E29AE19A0FBE0196089530
:041F8000F894FFCF03
:061F84005AFF1E93070046
:0400000300001800E1
:00000001FF
