:101800003BC06FC054C053C052C051C050C04FC045
:101810004EC04DC04CC04BC04AC049C048C047C074
:1018200046C045C044C009021200010100803209CF
:10183000040000000000000012011001FF00000879
:10184000C016DC050201010200010E035500530021
:1018500042006100730070001C037700770077007E
:101860002E00660069007300630068006C002E00A3
:10187000640065000403090411241FBECFE5D4E011
:10188000DEBFCDBF10E0A0E6B0E0EAE9FFE102C0B4
:1018900005900D92A636B107D9F710E0A6E6B0E0A4
:1018A00001C01D92AD39B107E1F754D174C3A8CF7F
:1018B000A82FB92F80E090E041E050EA609530E039
:1018C00009C02D9182279795879510F08427952739
:1018D000305EC8F36F5FA8F30895EADF8D939D93A0
:1018E0000895CF93CFB7CF93C395849BE9F7849B9B
:1018F00009C0849B07C0849B05C0849B03C0849B54
:1019000001C0A1C0DF93C0918000DD27C957DF4F20
:10191000849B02C0DF91EBCF2F930F931F9300B3F3
:101920002FEF04FB20F94F933F9310B34FEF0127A4
:1019300004FB21F93BE031C04E7F012F10B3216041
:1019400028C0102F4D7F2260000000B329C04B7FBC
:101950002460012F000010B32BC010B3477F286014
:101960002AC04F7E00B320612CC04F7D10B320628F
:101970002FC04F7B00B3206432C0422700B349938D
:101980004FEF0000102714FB20F910B31471C9F1B8
:10199000297F91F2012704FB21F900B3237F89F20B
:1019A000315058F1102714FB22F910B3277E79F239
:1019B000012704FB23F92F7C81F200B3102714FBCD
:1019C00024F92F7971F200C010B3012704FB25F927
:1019D0002F7359F200C000B3102714FB26F92230F0
:1019E00040F200C010B3012704FB27F9243028F689
:1019F0004F77206810B30000F9CF10E41ABF00271A
:101A000017C03B503195C31BD04010E41ABF08816A
:101A1000033CE9F00B34D9F020917E001981110FBD
:101A20001213EDCF093641F10D3211F0013E39F7B5
:101A3000009385003F914F911F910F912F91DF915E
:101A4000CAB7C6FD51CFCF91CFBFCF911895209186
:101A50008500222379F310918300112311F534308E
:101A600012F13093830020937F00109180003BE0BF
:101A7000311B3093800017C00091830001308CF43B
:101A80000AE53091600034FD10C000936000C3E7A8
:101A9000D0E00FC02795A8F45150A9F4220F000000
:101AA000F9CF4AE503C042ED01C0432FC4E1D0E0C5
:101AB00032E011B31461949A11BB02B320E414E133
:101AC0005F93012756E002BB279520F4515021F483
:101AD000220FF9CF012756E000003B5A02BBD0F29B
:101AE000279528F4515029F4220F0000F9CF01273F
:101AF00056E0279502BB20F4515021F4220FF9CF74
:101B0000012756E02991332302BB21F60B7E109169
:101B10008400110FC651D04002BB11F010937E001B
:101B200010E41ABF006111B31B7E402F4B7E5F9102
:101B300000C000C002BB11BB42BB7CCF12BAF894FC
:101B40001BBE15BE81E08BBF1BBEE0917100F09102
:101B50007200099588E10FB6F89481BD11BC0FBEE3
:101B6000979A04B601FE01C214BE81E08BBF82E0E9
:101B70008BBF8799FAC185B7826085BF8BB78064B8
:101B80008BBF8C9A80E007C0A895E7EBFBE031970C
:101B9000F1F700C000008150B9F78C987894DD24EB
:101BA000CC2410918300135017FD5BC1209180005D
:101BB0008CE090E0821B9109EC01C957DF4F209126
:101BC0007F002D3209F0CBC0183009F048C123EC5A
:101BD000209373002AE520936000109267004881EB
:101BE000242F20763981222309F446C088E690E02C
:101BF00090938200809381003330C9F49B818C8163
:101C00002A81203339F48370E82FF0E0EE59FF4F3A
:101C1000808109C0203A11F4A9D105C0203C11F4FB
:101C20006D81ACD180E080936B0024E08EC03530B4
:101C3000F9F0832F84508630A8F48A819B81909399
:101C40006D0080936C003930A9F02E8120936E00D6
:101C50008D81827080936F003093700047FD71C05A
:101C60002FEF6FC0323031F481E08093660002C004
:101C700021E06BC020E069C02A8110927C003323F0
:101C800031F410927D008CE790E022E055C03530B1
:101C900019F42093840044C03630E1F5FC01E75785
:101CA000FF4F208186579F4FFC018081813019F4BE
:101CB00088E398E104C0823041F486E298E1909391
:101CC00082008093810022E121C08330F1F422233D
:101CD00041F484E798E1909382008093810024E0AE
:101CE00015C0213041F488E598E1909382008093FB
:101CF00081002CE10BC0223041F48AE498E19093FA
:101D00008200809381002EE001C020E080E4809377
:101D100067001BC0383069F0393029F42093860001
:101D20008CE790E004C08CE790E03A3021F020E0AE
:101D300003C086E890E021E09093820080938100C8
:101D400004C080E88093670007C08F81882321F456
:101D50008E81821708F4282F2093610080C0809123
:101D6000670087FF7CC080916E00811708F4182FF0
:101D7000811B80936E0001E0811100E08091700072
:101D8000873008F464C07E010FC080916C00909190
:101D90006D009C012F5F3F4F30936D0020936C00CE
:101DA000F70161917F01EAD08E2D8C1B811768F3BA
:101DB00052C080916C0090916D008F73907000976D
:101DC00069F4F894E0916C00F0916D0083E08093E9
:101DD0005700E895789407B600FCFDCF2E5FF89485
:101DE000E0916C00F0916D008991999131E00C01C6
:101DF00030935700E8951124789480916C0090916D
:101E00006D00029690936D0080936C008F739070BC
:101E1000009741F00023E1F02117D0F080916F008E
:101E20008823B1F0F894E0916C00F0916D00329746
:101E300085E080935700E895789407B600FCFDCFC5
:101E4000F89481E180935700E895789401C020E0F0
:101E5000211708F4AECF002311F010926100109208
:101E600083008091600084FF6CC0809161008F3F8F
:101E700009F467C0182F893008F018E0811B80939F
:101E800061008091730098E8892780937300112383
:101E900009F446C08091670087FF26C080916E00DC
:101EA000811708F4182F811B80936E0000E0C4E7AF
:101EB000D0E017C080917000E0906C00F0906D0051
:101EC000873018F0C70152D002C0F701849188838F
:101ED00021960894E11CF11CF0926D00E0926C00D8
:101EE0000F5F011739F71AC0E0918100F09182006D
:101EF00086FF09C0812FA4E7B0E094919D933196AD
:101F00008150D9F707C0812FA4E7B0E091919D934C
:101F10008150E1F7F0938200E0938100193058F48A
:101F200084E790E0612FD9DC1C5F1C3041F08FEF1B
:101F30008093610004C08FEF809361001EE11093D5
:101F4000600084E190B3947131F48150D9F710921C
:101F5000840010927E0080916600882321F0CA944C
:101F600011F4DA9411F0879B1CCEE8DDE199FECFE5
:101F70009FBB8EBBE09A99278DB30895262FE199D8
:101F8000FECF9FBB8EBB2DBB0FB6F894E29AE19AB1
:0A1F90000FBE01960895F894FFCFEC
:061F9A005AFF1E93070030
:0400000300001800E1
:00000001FF
