:10000000A3C00EC2BCC0BBC0BAC0B9C0B8C0B7C0E4
:10001000B6C0B5C0B4C0B3C0B2C0B1C0B0C0AFC04C
:10002000AEC0ADC0ACC0090222000101008032099F
:100030000400000103000000092101010001229ACF
:10004000000705810308000A1201100100000008E2
:10005000C016DF050001010200011A034100720011
:100060006300610064006100700074006F00720042
:1000700020003800360368007400740070003A00F5
:100080002F002F007A006E006F00780078002E009D
:100090006D0065002F006100720063006100640064
:1000A0006100700074006F00720004030904050110
:1000B0000906A1018501050719E029E715002501B9
:1000C0007501950881029506750825651900296551
:1000D0008100C0050C0901A1018502150025010957
:1000E000E909EA75019502810209E2950181069507
:1000F000058103C005010905A1010901A1008503CE
:100100000930093115FF250175049502810215009A
:10011000750195080509190129088102C0C005016A
:100120000905A1010901A10085040930093115FF64
:1001300025017504950281021500750195080509D0
:10014000190129088102C0C011241FBECFE5D4E0E7
:10015000DEBFCDBF10E0A0E6B0E0EAE1FCE002C007
:1001600005900D92A436B107D9F710E0A4E6B0E0EF
:1001700001C01D92A03EB107E1F7F3D44CC540CFBA
:10018000CF93C62F2091890024FF07C020918A00B9
:1001900038E8232720938A0003C02AE520938900AA
:1001A000DC01EBE8F0E09C2F9E0F8D918193892F6D
:1001B0008E1B1816D4F36C2F8BE890E02DD1CC5FFA
:1001C000C0938900CF910895CF93DF9380919A00D7
:1001D000835087FDA8C090919700209196002D3202
:1001E00009F09FC0883009F09CC0CCE0D0E0C91B6A
:1001F000D109C256DF4F83EC80937E008AE580935D
:100200006000109264008881807619F0CE0188D455
:100210007FC09A81109287008981811106C0109257
:10022000880027E830E082E06FC0853019F49093B1
:100230009B0067C0863009F04EC08B81813041F44D
:1002400088E490E0909399008093980082E13FC009
:10025000823041F486E290E0909399008093980078
:1002600082E235C08330F1F4911108C08AEA90E04F
:10027000909399008093980084E029C0913041F4D4
:1002800084E790E0909399008093980086E31FC0E4
:100290009230E1F48AE590E0909399008093980081
:1002A0008AE115C0813241F488E390E0909399008F
:1002B0008093980089E00BC0823241F48EEA90E08E
:1002C00090939900809398008AE901C080E090E4BF
:1002D000909364001DC0883069F0893019F49093C0
:1002E0009D000FC08A3049F08B3059F48BE4809325
:1002F0008A0007C02DE930E002C027E830E081E045
:1003000003C027E830E080E0309399002093980004
:100310009F81911104C09E81981708F4892F8093C2
:10032000610010929A008091600084FF46C0809125
:1003300061008F3F09F441C0C82F893008F0C8E040
:100340008C1B8093610080917E0098E889278093C0
:100350007E00CC2331F1209198003091990080915A
:10036000640086FF0BC0F901AFE7B0E08C2F8A0F65
:1003700094919D9331968A13FBCF09C0D901EFE781
:10038000F0E08C2F8E0F9D9191938E13FCCF8C2FCC
:10039000815090E00196820F931F90939900809373
:1003A00098006C2F8FE790E037D0CC5FCC3019F0FD
:1003B0008FEF80936100C093600084E190B39570EB
:1003C00031F48150D9F710929B0010929500DF9183
:1003D000CF91089585B7836085BF8BB780648BBF4D
:1003E0008BE480938A008AE5809389000895A82F82
:1003F000B92F80E090E041E050EA609530E009C01C
:100400002D9182279795879510F084279527305E48
:10041000C8F36F5FA8F30895EADF8D939D93089565
:10042000CF93CFB7CF93C395809BE9F7809B09C04B
:10043000809B07C0809B05C0809B03C0809B01C040
:10044000A3C0DF93C0919700DD27C256DF4F809B8A
:1004500002C0DF91EBCF2F930F931F9300B32FEFC9
:1004600000FB20F94F933F9310B34FEF012700FBA0
:1004700021F93BE031C04E7F012F10B3216028C02D
:10048000102F4D7F2260000000B329C04B7F2460F5
:10049000012F000010B32BC010B3477F28602AC083
:1004A0004F7E00B320612CC04F7D10B320622FC05F
:1004B0004F7B00B3206432C0422700B349934FEF13
:1004C0000000102710FB20F910B31570C9F1297F27
:1004D00091F2012700FB21F900B3237F89F231500B
:1004E00058F1102710FB22F910B3277E79F201276B
:1004F00000FB23F92F7C81F200B3102710FB24F9B5
:100500002F7971F200C010B3012700FB25F92F737A
:1005100059F200C000B3102710FB26F9223040F238
:1005200000C010B3012700FB27F9243028F64F77CD
:10053000206810B30000F9CF10E41ABF002719C0DB
:100540003B503195C31BD04010E41ABF0881033CD7
:10055000F9F00B34E9F0209195001981110F121375
:10056000EDCF4A81441F093641F10D3211F0013EB1
:1005700029F700939C003F914F911F910F912F916C
:10058000DF91CAB7C6FD4FCFCF91CFBFCF9118959E
:1005900020919C00222379F310919A00112369F590
:1005A00034306AF130939A002093960010919700AE
:1005B0003BE0311B3093970022C000919A0001303C
:1005C000E4F40AE54F7049F43091600034FD19C03D
:1005D00000936000CEE7D0E018C03091890034FD70
:1005E00010C000938900CAE8D0E00FC02795A8F496
:1005F0005150A9F4220F0000F9CF4AE503C042EDA3
:1006000001C0432FC4E1D0E032E011B31560909AED
:1006100011BB02B320E415E05F93012756E002BB53
:10062000279520F4515021F4220FF9CF012756E0ED
:1006300000003B5A02BBD0F2279528F4515029F410
:10064000220F0000F9CF012756E0279502BB20F4C6
:10065000515021F4220FF9CF012756E0299133237D
:1006600002BB21F60A7F10919B00110FC651D040AA
:1006700002BB11F01093950010E41ABF016011B392
:100680001A7F402F4A7F5F9100C000C002BB11BBA0
:1006900042BB71CFE199FECF42E150E062E170E0F0
:1006A0008EEC90E0A8D2E199FECF42E150E060E00C
:1006B00070E08CEB90E09FC290917C00911126C27B
:1006C0001BC2FADF982F9059933020F481E0809379
:1006D00068000895982F9450943838F09C599C30B5
:1006E00040F08C5A8C3068F406C081E0809367003B
:1006F0000895E0E001C0E1E0F0E0EB59FF4F81E058
:1007000080830895823180F5282F30E0F901E65981
:10071000FF4F4081542F50784F77662361F0463069
:1007200018F5453011F4552311F090E002C050E85F
:1007300091E04F5F0BC04423B9F0413011F45111E7
:1007400002C090E002C050E091E04150F901E6594A
:10075000FF4F452B4083992339F08C3021F481E001
:10076000809369000895ADCF0895109265001092AE
:1007700066008FEF88BB17BA85BB14BA8AEF82BBBD
:1007800011BA08950F931F93CF93DF93809169005F
:10079000813029F080916900823059F51AC082E0D9
:1007A00080936900CAE6D0E010E01C3069F08881CF
:1007B000882351F0812FA0D1082F812FA7D10817AE
:1007C00019F0812F7EDF18821F5F2196123169F7A1
:1007D000E1CF8091680081110CC080916700811188
:1007E00008C080916500811104C080916600882353
:1007F000B1F18091650081113AC080916600882333
:10080000E1F035C080E0282F30E0F901EB59FF4FCF
:10081000908191110AC080958170282F30E0F901F4
:10082000EB59FF4F9081992341F08D5F80936200D7
:10083000F901EB59FF4F108220C080916700882397
:1008400021F01092670081E018C080916800882331
:1008500021F01092680082E010C080E00EC010927B
:10086000690080917600807880937C00C2CF80916F
:1008700062008250823030F6C6CFDF91CF911F9157
:100880000F9108951F93CF93DF9380916900811199
:1008900033C016B3D1E0C0E08D2F812361E009F0B1
:1008A00060E08C2F2FDFDD0FCF5FC630A9F713B3C9
:1008B00086E0C1E0D82FDF5F9C2F912361E009F033
:1008C00060E020DFCC0F8D2FDC30A1F7D0B3D1FB5F
:1008D000662760F981E068278CE014DF8DE0C8E0CE
:1008E000182F1F5F9C2F9D2361E009F060E00ADF55
:1008F000CC0F812F1231A1F7DF91CF911F91089575
:10090000AF92BF92CF92DF92EF92FF920F931F931D
:10091000CF93DF9300D01F92CDB7DEB7823009F4BA
:100920006AC020F4813009F0D8C004C0873008F0D4
:10093000D4C089C08093B4001092B5002AE6A22EDC
:1009400020E0B22E92E0F12C3DE3E32E40E4D42EE1
:1009500001E010E0F50181915F0187FF3DC08F2D1F
:100960009B83AADE282F24509B812438A8F52C577E
:10097000283080F4282F30E020583109A80102C027
:10098000440F551F2A95E2F78091B500842B809380
:10099000B50022C0983000F5292F30E0803719F0DB
:1009A0008137A9F40AC08091B50084608093B500B6
:1009B000F901EC54FF4FE0820EC08091B5008260D7
:1009C0008093B500F901EC54FF4FD08204C0F901C7
:1009D000EC54FF4F80839F5FF39452E1F512BACF3E
:1009E00006C0E92FF0E0EC54FF4F10829F5F983073
:1009F000C0F388E073C09AE6C92E90E0D92EE12CAE
:100A0000F12C01E010E0F60181916F0187FF11C028
:100A10008F2D52DE982F9059933058F4282F30E0C4
:100A200020593109A80102C0440F551F2A95E2F749
:100A3000E42AF39452E1F512E6CF82E08093B40009
:100A4000E092B5004BC08093B4005CE0859F502DD0
:100A5000112454528AE6C82E80E0D82E40E090E05F
:100A6000E12CF12C01E010E0F60181916F0187FF8C
:100A700029C08F2D4A8359839B831EDE5981851B94
:100A80004A819B81823A69F028F4803AD1F0813A18
:100A9000C9F405C0833A39F08C3AA0F406C091E05D
:100AA00011C040EF0FC040E10DC0282F30E0245AA4
:100AB0003109B80102C0660F771F2A95E2F7E62ACE
:100AC00001C09FE0F39472E1F712CECF942B909384
:100AD000B500E092B60083E001C080E00F900F9077
:100AE0000F90DF91CF911F910F91FF90EF90DF90CA
:100AF000CF90BF90AF900895823130F4E82FF0E0AE
:100B0000E454FF4F8081089580E00895823130F4ED
:100B1000E82FF0E0E253FF4F8081089580E00895D0
:100B2000FC01808180768032D1F48181813041F472
:100B300084EB90E090939900809398008281E0CEBE
:100B4000823041F48DE790E0909399008093980073
:100B500081E008958A3019F4838180937D0080E0DC
:100B60000895CF93DF931F92CDB7DEB72FE088E1D2
:100B700090E00FB6F894A89581BD0FBE21BDF5DDBC
:100B800029DC889A80E007C0A895E7EBFBE0319765
:100B9000F1F700C000008150B9F7889878947ADDA9
:100BA00080E000E0F12C11E0A89589830DDB6ADE7E
:100BB0008981811101C0E6DD08B600FE08C018BFBA
:100BC00090917D00992319F0053030F00550811186
:100BD00006C0FF2049F301C0092FFF24F394909130
:100BE000890094FFE1CF8CDE682F84EB90E0C8DAB7
:100BF00080E0F12CD9CFDC01CB01FC01E199FECFE3
:100C000006C0FFBBEEBBE09A31960DB20D9241508B
:0A0C10005040B8F70895F894FFCFA4
:040C1A005AFF03007A
:00000001FF
